:020000040800F2
:1000000000000A2099030008E903000805530008CE
:100010000B5300081153000817530008000000009C
:10002000000000000000000000000000456600081D
:10003000E903000800000000DD660008ED66000826
:10004000E9030008E9030008E9030008E9030008E0
:10005000E9030008E9030008E9030008E9030008D0
:10006000E9030008E9030008E9030008191D000876
:10007000251D0008311D00083D1D0008491D000810
:10008000551D0008611D0008E903000875070008F8
:1000900079060008E903000879070008E903000869
:1000A000E9030008E9030008E9030008E903000880
:1000B000E9030008E9030008E9030008E903000870
:1000C000E9030008E9030008E9030008151B00081C
:1000D000211B0008E9030008E9030008E903000800
:1000E000E9030008E9030008E9030008E903000840
:1000F000E9030008E9030008E90300080000000024
:10010000E9030008E9030008E90300082D1B0008C3
:10011000E9030008E9030008E9030008E90300080F
:100120006D1D0008791D0008851D0008911D00083F
:100130009D1D0008E9030008E9030008E903000821
:10014000E9030008E9030008E9030008E9030008DF
:10015000A91D0008B51D0008E9030008C113000827
:10016000E9030008E9030008E9030008E9030008BF
:10017000FD130008E903000800000000E90300087F
:10018000E9030008E9030008E9030008E90300089F
:10019000E9030008E9030008000000000000000077
:1001A0000000000000000000E9030008E903000867
:1001B000E9030008E9030008E90300080348044BC9
:1001C000834202D0034B03B118477047080C00204C
:1001D000080C0020000000000548064B1B1AD90F30
:1001E00001EBA301491002D0034B03B1184770473C
:1001F000080C0020080C00200000000010B5064C80
:10020000237843B9FFF7DAFF044B13B10448AFF387
:1002100000800123237010BD200C0020000000008E
:100220004440010808B5054B1BB105490548AFF32B
:100230000080BDE80840FFF7CFBF00BF000000000E
:10024000240C002044400108A3F5803A704700BF09
:10025000174B002B08BF134B9D46FFF7F5FF0021FE
:100260008B460F461348144A121A0BF0CFFD0E4B63
:10027000002B00D098470D4B002B00D09847002052
:10028000002104000D000D48002802D00C4805F0A4
:1002900091FE0BF0BFFE2000290006F08DF906F05C
:1002A00087F800BF00000800000000000965000892
:1002B00000000A20200C002028310020B55F000833
:1002C0000000000030B5BDB01422002101A80BF0E1
:1002D0009DFD4422002106A80BF098FD94220021E8
:1002E00017A80BF093FD264B9A6D42F080529A6549
:1002F0009B6D03F0805300930020009B01F0A6FF4C
:1003000010B100203DB030BD04231090012406A898
:100310000693089402F0CEF80028F2D11023069339
:10032000B0230E930223CDE90C40CDE910341E22F8
:100330000624052506A8CDE91242CDE914531693EB
:1003400002F0B8F804460028DBD102F0FFFF4FF4BA
:100350000053179317A84FF04063349302F0D2FD77
:100360000F210323CDE9011301A82946CDE9034458
:10037000059402F04DFBB0FA80F0E840C2E700BF00
:100380000010024008B5FFF79DFF10B9014805F0C5
:10039000B9FC08BDDC270108DFF834D003F074FE97
:1003A000002103E00B4B5B58435004310A480B4BD0
:1003B00042189A42F6D30A4A02E0002342F8043B6C
:1003C000084B9A42F9D3FFF743FF7047FEE700005E
:1003D00000000A2050400108C0010020080C002045
:1003E000200C002028310020FEE7000073B501F04A
:1003F00089F9041E33DB1B4E56F8240000282ED04A
:100400009023194D6343EB58DA69110609D5DA696F
:10041000120606D51B681B0603D5144B01211B6869
:10042000984790236343EB58DA6991060BD5DA6954
:10043000920608D51B68980605D50C4B56F8240083
:100440001B680021984790235C432B59DA691107F8
:1004500005D5DA69120742BF9B8C9BB2019302B0AB
:1004600070BD00BFA00F0020400C00203C0C0020FD
:100470000148FFF7BBBF00BF008000400148FFF705
:10048000B5BF00BF005000400148FFF7AFBF00BF3D
:10049000004C00400148FFF7A9BF00BF00480040E2
:1004A0000148FFF7A3BF00BF004400400148FFF729
:1004B0009DBF00BF00380140044A4109012300F0FC
:1004C0001F00834042F82130704700BF00E100E088
:1004D0004309064900F01F0020330122824041F801
:1004E0002320BFF34F8FBFF36F8F704700E100E011
:1004F000034B19604168034B43F82120704700BF4C
:100500003C0C0020A00F002030B4D0E900352B486F
:10051000834234D00ED8A0F50060834229D000F584
:100520008060834228D0A0F5006083421ED0002462
:10053000204608E02248834224D000F53840834218
:10054000F5D1204C252090235D431F4B5B59FAB118
:100550001A68D1B942F020021A601C4B00F1100257
:100560009B6843F8224030BCFFF7A6BF184C2620FA
:10057000E9E7184C2720E6E7174C3420E3E7174C4F
:100580003520E0E7164C4620DDE742F08002E3E745
:100590001A6849B922F020021A601B6813F0800F14
:1005A00009D130BCFFF794BF22F080021A601B68AB
:1005B00013F0200FF4E730BC704700BF005000403C
:1005C00000800040AD040008400C002000ED00E079
:1005D000A104000895040008890400087D040008AF
:1005E00071040008F8B54568184E902303FB0563B5
:1005F00007469A68B2F5805F15D11B69002B40F25F
:10060000FF1418BFFF24902303FB0563A3F8604089
:10061000384600F0ABFF0028FAD090235D437359B1
:10062000988C2040F8BD2AB91B6993420CBFFF2467
:100630007F24E8E7B2F1805F05D11B69002B0CBF76
:100640007F243F24DFE70024DDE700BF400C0020CB
:1006500070B5456806460C46304600F097FF002806
:10066000FAD090235D43034B5B59C4F308041C8507
:1006700070BD00BF400C0020384B5A69D0072DE9EF
:10068000F0412BD59E6836489968364D9A68364CAD
:1006900006EA0007B04308BF012001EA050108BFD0
:1006A00098602E4BA94208BF4FF4807002EA040202
:1006B00008BF9860A24204BF4FF480309860284B76
:1006C0009F4205D0274B994202D0274B9A4205D131
:1006D000264B274A1B681068012198471F4BD96891
:1006E0005A6989070BD0970709D55A6922F0020287
:1006F0005A611E4B1E4A1B68106800219847174B11
:1007000099695A695B698E0709D5950507D51C0457
:1007100005D5164B164A1B681068052198470F4CE3
:10072000A16962696369480702D46369BDE8F08121
:100730005105FAD51A040AD463691B04F6D50B4B8C
:100740000B4A1B681068BDE8F04102211847084AAF
:10075000064B10681B6807219847EDE700640040CE
:10076000030000040003000800000310B80F00207D
:10077000BC0F0020FFF780BFFFF77EBF30B591FAB6
:10078000A1F391FAA1F1B3FA83F304685B000325A6
:10079000B1FA81F105FA03F3490024EA03038A4020
:1007A0001A43026030BD000010B53F4C8AB00828E3
:1007B00076D8DFE800F005121D28333E495F6A0055
:1007C000E36C43F00103E364E36C03F00103009383
:1007D000009B4FF090400AB010BDE36C334843F0EB
:1007E0000203E364E36C03F002030193019BF2E76D
:1007F000E36C2F4843F00403E364E36C03F0040369
:100800000293029BE7E7E36C2A4843F00803E364A2
:10081000E36C03F008030393039BDCE7E36C2648D7
:1008200043F01003E364E36C03F010030493049BB0
:10083000D1E7E36C214843F02003E364E36C03F069
:1008400020030593059BC6E7A36D43F08053A36582
:10085000A36D03F080530693069B01F04FFDE36CFC
:10086000174843F04003E364E36C03F0400307934D
:10087000079BB0E7E36C134843F08003E364E36C49
:1008800003F080030893089BA5E7E36C0E4843F44C
:100890008073E364E36C03F480730993099B9AE724
:1008A0000A4805F02FFA00BF00100240000400487B
:1008B00000080048000C00480010004800140048E0
:1008C00000180048001C004800200048F0270108DC
:1008D000431C10B504D107490748772204F0D6FF1E
:1008E0004FF4707100F00F0400F090FA0120A04066
:1008F00010BD00BF512801085C2801084B1C70B5D1
:1009000004460E46018218D0C1F30310FFF74CFFD6
:1009100005463046FFF7DCFF238A084A656103F08D
:100920000F03206052F82330A36105F110036360C8
:1009300005F118032835A360E56070BDDC380108B7
:10094000B0F9100000F0F2BA0A46D0E905010AB980
:10095000FFF714BF0122FBE708B501F005F90020FD
:1009600008BD000038B505F065F8124B1249134870
:100970005C6A02680B889B1A2344B3F5803F16D348
:100980004FF47A75B3FBF5F205FB123305E0013243
:10099000A3F57A73B3F57A7FF9D20460084C0B8023
:1009A00023681344236005F05BF8206838BD0022FB
:1009B000F0E700BF000C0040C00F0020C80F00206F
:1009C000C40F002000487047D4380108024BD86992
:1009D000DA698242FBD17047007C004008B505F01F
:1009E00029F8074B01221A70064B00221A70064B99
:1009F0000222C3F808219A60BDE8084005F030B82B
:100A0000DC0F0020DB0F002000E100E010B505F056
:100A100011F8134B1A7842B9124A12681168090783
:100A2000FCD50821516001221A700F4C23781BB1AC
:100A300005F062FA002323700C4A002313700C4A5D
:100A400013700C4B0222C3F88820BFF34F8FBFF303
:100A50006F8FBDE81040C3F8882105F001B800BFD2
:100A6000D80F0020E00F0020D00F0020DB0F002067
:100A7000DC0F002000E100E070B53F4B1C68B8B00F
:100A800024B138B0BDE87040FFF7C0BF0125902207
:100A9000214614A81D600BF0B9F94022214603A895
:100AA0000BF0B4F9042302934FF40073139302A8DC
:100AB0004FF4402304952C9301F0FCFC10B12F4817
:100AC00005F020F913A802F01DFA08B12C48F7E749
:100AD0002C4B2D4C9A6D42F000429A659A6D02F0B3
:100AE00000420192019A9A6B42F000429A639A6B1B
:100AF00022F000429A63A3F5CA33C4E90100C4E9B5
:100B00000300C4E90800C4E90A00236084F8360041
:100B10004FF48023E06120634FF6FF762046C4E95E
:100B2000056301F009FA054608B11848C8E7184BF3
:100B3000184A9B68C3F84421174A136A43F001031B
:100B4000136223689A6842F001029A609A6842F040
:100B500008029A603146204601F04AFA23680822CA
:100B60005A605D611A681207FCD508225A600B4B67
:100B700001221A7038B070BDCC0F00206F28010818
:100B80008828010800100240E00F0020A928010871
:100B900000ED00E0910C000800040140D80F002097
:100BA00008B504F047FF064B1B6801225A60054B4D
:100BB0000222C3F88821BDE8084004F051BF00BFFD
:100BC000E00F002000E100E070B5044604F032FFC1
:100BD000FFF7FCFE264B05461C60264A0221916069
:100BE000254E3278F2B9611F4FF6F57291422349D2
:100BF0000FD94FF6FA7290420BD906340122A4B2F3
:100C00000A701C601E4B01221A70BDE8704004F08F
:100C100027BF00220A701B68AB421A4B28BF012273
:100C20001A70EFE7FFF7BCFF00235A1992B2A242F5
:100C300008BF053403F1010308BFA4B2052BF4D1AA
:100C4000114BAC421B6811D24FF6FA7295420DD887
:100C50004FF6FF725A6100230C4C33702378002B3F
:100C6000D3D105F033F901232370CEE75C61F2E7BD
:100C7000D40F002000E100E0D80F0020D90F0020A1
:100C8000DB0F0020DA0F0020E00F0020D00F002043
:100C900070B504F0CFFE2C4B2C4C1A7832B1226880
:100CA000002119700123536004F080F823681A684A
:100CB000D50706D59A68D00703D501225A6004F0FB
:100CC00075F823681A68110724D59A68120721D588
:100CD00008225A601E4B1F4C01221A7023781BB148
:100CE00005F00AF9002323701B4C237893B11B4DA8
:100CF0001B492B7803F0FF06B3B1FFF767FE0B68C3
:100D0000063080B2984209D3FFF768FE00232B70AB
:100D100000232370BDE8704004F0A2BE08680638C6
:100D200080B2FFF751FFF1E70E4D2B7843B1FFF78B
:100D30004DFE0B68984203D3FFF750FE2E70E7E795
:100D40000868FFF741FFE3E7DC0F0020E00F002019
:100D5000D80F0020D00F0020DB0F0020D90F00207B
:100D6000D40F0020DA0F0020FFF750BE7047704705
:100D700010B50F4CFFF7FBFF03F0ACF901F021F8C1
:100D8000D4F890309B0707D401F028FAD4F89030BB
:100D900023F01803C4F89030FFF7F4FA03F09AF93F
:100DA00000F0AAFFFFF7E2FF024B01221A6010BD1C
:100DB000001002401810002030B591FAA1F391FA0A
:100DC000A1F1B3FA83F384685B000325B1FA81F1E2
:100DD00005FA03F3490024EA03038A401A438260B8
:100DE00030BD30B591FAA1F391FAA1F1B3FA83F3D2
:100DF000C4685B000325B1FA81F105FA03F34900E9
:100E000024EA03038A401A43C26030BDB0F1FF3FB9
:100E10002DE9F84380460E467FD000F00F02404B8C
:100E2000C0F3031053F82250C1F3831901F00707F0
:100E3000FFF7BAFCB9F10F0F0CBF03224A4629464F
:100E40000446FFF7B9FF032F5ED8DFE807F06264BE
:100E50002C02032395FAA5F2B2FA82F2216852001D
:100E6000032000FA02F221EA020195FAA5F2B2FA91
:100E700082F252009340013F0B43012F236005D8BB
:100E8000636832074CBF2B43AB436360C6F3011268
:100E9000012A02D0022A18BF002229462046BDE8B6
:100EA000F843FFF79EBF18F0080FC6F3832217D050
:100EB0002B0A93FAA3F1B1FA81F1406A93FAA3F3F2
:100EC00089004FF00F0CB3FA83F30CFA01F19B0089
:100ED00020EA010102FA03F30B4363620223B9E73C
:100EE00095FAA5F3B3FA83F3016A9B000F2000FA89
:100EF00003F321EA030195FAA5F3B3FA83F39B0008
:100F00009A400A432262E9E706490748D52204F0DD
:100F1000BDFC00239EE701239CE7BDE8F88300BFEA
:100F2000DC380108FF2801085F330108431C70B555
:100F30000D4634D000F00F02194BC0F3031053F8E4
:100F40002240FFF731FC94FAA4F194FAA4F2066867
:100F5000B1FA81F18AB149000323B2FA82F28B40DF
:100F600033405200D340013B012B06D8EB1E022B2D
:100F7000436894BF2343A3434360013D042D0CD831
:100F8000DFE805F00309030B090001222146BDE853
:100F90007040FFF726BF0222F8E70022F6E770BD97
:100FA000DC380108CB7C2BB1082807D8044B33F878
:100FB000100070470C2801D8024BF8E7002070475A
:100FC000363901081C390108B0F9040040F2C33178
:100FD000FFF71CBF70B507EE101A2C4B0668B5EE74
:100FE000C07AF1EE10FA88B005461E6030D4F7EEF4
:100FF000007AB4EEE77AF1EE10FAD8BFF0EE477A55
:101000002B8A07EE103AB8EE477A67EE277A17EE8A
:10101000900A07F043F9AC7CE8606023CDE9013029
:10102000013C0023CDE90533039304930793E3B216
:10103000032B024619D8A40029462046FFF7B2FF29
:10104000336A984307D17CB1042C10D1B2630CE011
:10105000DFED0F7AD4E70D48224601A902F046FCE5
:1010600050B10C4804F04EFE726308B070BD082CFD
:101070000CBFF2633264F8E7EB7C0448214613B1FD
:1010800002F0B2FDF1E702F043FDEEE71C10002094
:1010900000000000082901088368B3B1D0ED037A8D
:1010A000038AB8EE677A07EE903AF8EE677AC7EEF1
:1010B000276AF7EE007AF4EEE76AF1EE10FAD4BF91
:1010C00016EE900A17EE900A704700207047000055
:1010D0002DE9F0432DED028B0268464D87B00023C9
:1010E0000093064689462A60FFF7D6FF116A41F24F
:1010F00011131942074608D1116A40F244431942BC
:1011000002BF136823F001031360694601A801F0D0
:10111000F5FD3468384B0022D1B2013253F831006A
:10112000A042F9D114B9354804F0ECFD03EBC1033A
:101130001B7953BB01F064FD049B009003B1400098
:1011400007EE909AB8EEE78ADFED2D7A28EE278A2F
:1011500007EE900AF8EE677A28EE278ADFED297A03
:10116000C8EE277A17EE900A07F0C8F807EE900A43
:10117000FCEEE77A17EE904AB4F5803F0AD922498F
:10118000224840F2891204F081FB01F04BFD059BDF
:101190000090D3E7F8EEE77AC8EE277A17EE900AC8
:1011A00007F07CF8B0F5803F804604D31649184814
:1011B0004FF4C772E7E7431E013CEB600D486C60DB
:1011C00000232B61AB6002F01DFB08B11148ABE7B7
:1011D000C6F80890A6F8108039463046FFF7FAFEA8
:1011E0002A68136843F00103136007B0BDEC028B5B
:1011F000BDE8F0831C100020843801081F29010875
:10120000BD37863500FF7F47742901088129010811
:101210009C2901080829010870B50E468AB0584972
:101220000546304603F0EEFD55490446304603F0CE
:10123000FFFD621C01462C6004D1524952486B22CA
:1012400004F024FB431C03D14E4950486F22F7E7BA
:10125000C0F38433AB74C0F3C043EB744C4B9C427B
:1012600019D103F564431A6E42F400621A661B6ECC
:1012700003F400630193019B464B9C4218D103F594
:101280005C431A6E42F400521A661B6E03F400535C
:101290000693069B63E0B4F1804F18D13E4B9A6DE4
:1012A00042F001029A659B6D03F001030293029BD9
:1012B0003A4B9C4219D103F550431A6E42F48032E6
:1012C0001A661B6E03F480330793079B47E0344B89
:1012D0009C4219D103F503339A6D42F002029A65DC
:1012E0009B6D03F002030393039B2E4B9C4219D189
:1012F00003F54C431A6E42F400321A661B6E03F477
:1013000000330893089B2AE0274B9C4219D103F530
:1013100002339A6D42F004029A659B6D03F0040358
:101320000493049B214B9C4219D103F548431A6E48
:1013300042F480221A661B6E03F480230993099BF2
:101340000DE01B4B9C4297D103F501339A6D42F09F
:1013500008029A659B6D03F008030593059B3046D0
:10136000FFF754FD0023C5E9023344F62061012351
:101370002846AE802B820AB0BDE87040FFF7A8BEB9
:10138000A024010874290108BD290108D5290108F4
:10139000002C014000340140001002400040014098
:1013A00000040040004401400008004000480140A3
:1013B000000C00404FF47A735943FFF789BE0000D8
:1013C000014B186800F062BE6C100020D0E90532B5
:1013D000012A0CBFD86E986F06F08EBAFFF7F6BFE1
:1013E0004FF400734364D0E90532012A0CBFD86E74
:1013F000986F06F081BAFFF7F3BF0000014B186841
:1014000000F044BE681000200FB407B5064B04AAD4
:101410001B6852F8041BD868019209F03DFF03B025
:101420005DF804EB04B07047F00900200368474AF8
:10143000934210B504461ED102F55842116C41F496
:1014400080411164116C21F480411164116E21F40A
:10145000804111663E4A93421DD13E4BDA6B42F009
:101460000102DA63DA6B22F00102DA63DA6D22F04C
:101470000102DA650FE0384A934236D1354B9A6B58
:1014800042F400329A639A6B22F400329A639A6DA6
:1014900022F400329A65B4F9180040F2C331FFF724
:1014A000B5FCB4F91A0040F2C331FFF7AFFC236A70
:1014B00023F40073B3F5807F05D1B4F9240040F222
:1014C000C331FFF7A3FC236A23F48073B3F5007FD5
:1014D00005D1B4F9260040F2C331FFF797FC6268EA
:1014E0001E4B002143F8221010BD1D4A93420CD11F
:1014F000184B9A6B42F480229A639A6B22F48022F2
:101500009A639A6D22F48022C4E7164A93420CD162
:10151000104B9A6B42F400229A639A6B22F40022D9
:101520009A639A6D22F40022B4E70F4A934291D154
:10153000084B9A6B42F480129A639A6B22F48012E1
:101540009A639A6D22F48012A4E700BF003801402C
:10155000008000400010024000440040A00F002026
:1015600000480040004C004000500040436890227A
:101570005343054AD358DA69120744BF08221A6256
:10158000D869C0F340107047400C00204368902297
:101590005343034AD358D869C0F3C010704700BF03
:1015A000400C0020F8B54668234A056881689023FE
:1015B00073439C18D5506160C368A3600369E360FE
:1015C00043692361036AA361B1F5965F4FF000039D
:1015D00028BF1F46A4F8563038BF0727A4F8543058
:1015E000A4F85E30A4F85C30C4E90973E3612362B7
:1015F0006366B0F91A30013318D0B0F91830581CAE
:101600000CBF04230C23902000FB062253610B4BDC
:101610009D4206D142F6AA239942204608D802F0FC
:1016200012FD2046BDE8F84002F0DDBC0823EAE7E1
:1016300002F019FDF5E700BF400C002000800040DB
:1016400070B502682B4B9A42B6B004460D468160D5
:1016500022D19022002112A80AF0D8FB2023119356
:1016600042F6AA239D4222DD002311A8259301F012
:1016700049FC2046FFF796FF002839D04FF48063DD
:1016800011A8259301F03EFC2046FFF78BFF78B3AD
:1016900019482946FFF7B8FE2046FFF783FF38B305
:1016A0001648294636B0BDE87040FFF7ADBE144E6F
:1016B000D6F8901011F002010BD1402201A80AF0D7
:1016C000A5FB042300936846012302930A9300F0CC
:1016D000F1FED6F890309B07C6D54FF4406311A8B1
:1016E000259301F00FFC2046FFF75CFF0028BBD1DB
:1016F00036B070BD00800040EE290108392A01088B
:1017000000100240124B984217D0A3F57443984240
:1017100015D003F58063984213D003F58063984297
:1017200011D003F5806398420FD003F540539842DF
:101730000CBF05204FF0FF3070470020704701209C
:10174000704702207047032070470420704700BF95
:10175000003801402DE9F0470F4686B06149044644
:101760003846164603F04EFB5F498046304603F08C
:1017700049FB0146404603F023FB5A4905463846DB
:1017800003F056FB58498246304603F051FB162FB2
:1017900081460AD0172E08D05249162003F032FB9A
:1017A00040450CD1514804F0ADFA4FF00108691CD6
:1017B000256007D14E494F48412204F067F84FF0A9
:1017C0000008F4E74C4B9D4219D103F558431A6EBB
:1017D00042F480421A661B6E03F480430093009B20
:1017E000464B9D4219D103F5C833DA6D42F0010230
:1017F000DA65DB6D03F001030593059B0DE0404BBB
:101800009D4214D103F5E6339A6D42F400329A6595
:101810009B6D03F400330193019B2846FFF772FF91
:101820006060013030D132493648A022C5E7364BDE
:101830009D420BD103F5E4339A6D42F480229A6500
:101840009B6D03F480230293029BE6E72F4B9D429E
:101850000BD103F5E2339A6D42F400229A659B6D39
:1018600003F400230393039BD7E7294B9D42B7D191
:1018700003F5E0339A6D42F480129A659B6D03F490
:1018800080130493049BC8E751463846FFF7BEFA1D
:1018900001213846FFF74AFB49463046FFF7B6FAC2
:1018A00030460121FFF742FB00234FF4E132C4E947
:1018B0000223C4E904332362278366832046FFF7AB
:1018C00071FEB8F1000F0AD0124B134801221A60C2
:1018D00021464C2206B0BDE8F0470AF029BC06B00C
:1018E000BDE8F087EC2301082C230108632A0108D6
:1018F000D82A0108E52A010800380140008000408C
:1019000000440040012B010800480040004C00400A
:1019100000500040BC100020701000201E4B1868C2
:1019200010F0010018BFD8691C4B1A681CBFC0F327
:10193000801080F00100D20741BFDB69C3F3801340
:1019400083F001031843164B1A68D10741BFDB69C6
:10195000C3F3801383F001031843124B1A68D207B4
:1019600041BFDB69C3F3801383F0010318430E4BBF
:101970001A68D10741BFDB69C3F3801383F0010309
:1019800018430A4B1A68D20741BFDB69C3F38013BF
:1019900083F00103184370470038014000440040C1
:1019A00000480040004C00400050004000800040D3
:1019B000034A516A536A5B1A8342FBD3704700BFE4
:1019C000000C004010B5002486B01422214601A866
:1019D00000940AF01BFA694601A801F08FF90F2361
:1019E0000099019301A8CDE902440594049401F003
:1019F0000FF810B1024804F085F906B010BD00BF21
:101A0000132B010800B593B00021442201A80AF06D
:101A1000FDF90F4B9A6D42F080529A659B6D03F071
:101A20008053009301A8009B01F00EF9102301934D
:101A300001210023B02201A8CDE9071309920B93DD
:101A400000F038FD10B1034804F05CF913B000BD9C
:101A5000001002403B2B010808B503F0EBFF074BD9
:101A6000186810F480404FF0010118BF4FF4804017
:101A700000F0BCFBBDE8084003F0F2BF007000407E
:101A800073B5FFF74BFF00283BD11F4C03F0D2FF8B
:101A900000F002F91D4AA56D166815F0805506F490
:101AA000804608D1A36D43F08053A365A36D03F076
:101AB00080530193019B0EB100F038FC00F026FC2E
:101AC000012000F053FC0EB100F028FC1DB9A36DFD
:101AD00023F08053A3650E4C00232360FFF792FF91
:101AE000FFF770FFFEF74EFC4FF4FA70FFF760FF50
:101AF00000F0EAF80123236002B0BDE8704003F073
:101B0000AFBF02B070BD00BF0010024000700040C7
:101B100018100020014B186801F022BCC8100020EA
:101B2000014B186801F01CBCC4100020014B186860
:101B300001F016BCC0100020074B084A13601A6958
:101B4000910707D5DA68920704D56FF002021A618F
:101B500003F07CBB704700BF000C0040D810002091
:101B6000004870474839010830B589B001A903A879
:101B700001F0C4F801F044F8204B01909A6D204C1C
:101B800042F008029A659A6D02F008020292029AE7
:101B90009A6B42F008029A639A6B22F008029A63E9
:101BA000069AA3F5013323604FF0FF33E360154B32
:101BB000FAB9B0FBF3F3581E0025606010482561A8
:101BC000C4E90555A56001F0EDFD0F4B0F4A9B6878
:101BD000C3F808210E4B4FF480225A60084829466A
:101BE00001F00AFF2268D36823F00203D36009B032
:101BF00030BD4000B0FBF3F00138DDE700100240DB
:101C0000D810002040420F0000ED00E0391B000812
:101C100000E100E004480268D36823F00203D360C7
:101C2000002101F0E9BE00BFD8100020014B586A26
:101C3000704700BF000C0040054B1B686FF00202AC
:101C400058631A61DA6842F00202DA60704700BF36
:101C5000D8100020064B1B686FF002021A615A6907
:101C600042F002025A61DA6842F00202DA6070471A
:101C7000D8100020034B1A68D36823F00203D36006
:101C8000704700BFD8100020024B1B686FF00202A3
:101C90001A617047D8100020064B074A1B68596A22
:101CA00011605A6B054B1A60054BDA68054B1A60D8
:101CB000704700BFD8100020D4100020D0100020A2
:101CC000000C0040CC100020064B074A1B6812682D
:101CD0005A62064A12685A63054B1A68054BDA6065
:101CE000704700BFD8100020D4100020D010002072
:101CF000CC100020000C00401FB5054B0FCB8DE829
:101D00000F00684605F052FD024B186005B000BD9B
:101D100050390108B0110020014B586800F0A7B8F5
:101D200024110020014BD86800F0A1B82411002034
:101D3000014B586900F09BB824110020014BD86971
:101D400000F095B824110020014B586A00F08FB8BC
:101D500024110020014BD86A00F089B8241100201A
:101D6000014B586B00F083B824110020014BD86B55
:101D700000F07DB824110020014B586C00F077B8BA
:101D800024110020014BD86C00F071B82411002000
:101D9000014B586D00F06BB824110020014BD86D39
:101DA00000F065B824110020014B586E00F05FB8B8
:101DB00024110020014BD86E00F059B824110020E6
:101DC000704710B5032000F00BF80F20FEF7C4FD9C
:101DD000044618B9FFF7F4FF204610BD0124FBE7C5
:101DE0000749CA6822F4E0620302120403F4E063C4
:101DF000120C134343F0BF6343F40033CB607047CE
:101E000000ED00E008B590F82530022B03D0042344
:101E1000C363012008BD03681A6822F00E021A602D
:101E20001A6822F001021A60826C136823F480732E
:101E30001360D0E9101303F01C02012393404B60A0
:101E4000D0E913325A60436D33B11A6822F48072BC
:101E50001A60D0E916325A60012380F82530002339
:101E600080F82430836B03B198470020D2E7016CDF
:101E7000426C036870B402F01C020E681D680424F2
:101E8000944034420ED015F0040F0BD01A6892061D
:101E90005EBF1A6822F004021A60036B4C6073B3D1
:101EA00070BC184702249440344212D015F0020F3F
:101EB0000FD01A68950606D41A6822F00A021A6032
:101EC000012380F8253000234C6080F82430C36A59
:101ED000E5E708249440344211D02C070FD51C6844
:101EE00024F00E041C60012303FA02F24A60C3636B
:101EF00080F82530002380F82430436BCFE770BC96
:101F0000704700000A4B44F620621B68B3FBF2F3F3
:101F10004FF47A7210B55343046800202268013BE5
:101F200008BF032031EA020201D0002BF6D110BD18
:101F3000C801002070470000F8B50446002850D0C2
:101F400090F8363003F0FF021BB980F83520FFF718
:101F5000F1FF60682168A56A022384F83630012801
:101F6000CB6802D0B5F5000F01D123F01E0323F496
:101F70006046626926F0C0064FF6FF77BA4218BF86
:101F80003346194FA6681F4040EA05033343266ACB
:101F90003343666A33433B43E0B9E0692669304323
:101FA0000343B5F5000F17D04FF6FF70824204D0FF
:101FB000A0690243E069024313430C4ACB6091429B
:101FC000E36A04BF226B13430B62012384F83630AB
:101FD0000020F8BD0128E4D1D4E9030528430343D8
:101FE000E2E70120F5E700BFFEF119FF007C0040A9
:101FF000022238B580F83620D0E90052012A044682
:102000000B4607D0826AB2F5000F02BFEA6822F4DD
:102010006062EA602A69102142F001022A612046CA
:102020006960AB61FFF76EFF032807D02B6943F0AF
:1020300004032B61012384F83630002038BD70473B
:10204000806A08B50023C363436CB3F5807F14D165
:1020500003681A6A12F0200F4FF0020209D05A6288
:102060001A6842F400321A601A6842F002021A60DA
:1020700008BD4264FFF7E3FFFAE702234364FFF77A
:10208000AFF9F5E7704770477047000038B503684F
:102090001A6A044655071868616C1FD545031DD59B
:1020A000182914D1626B127883F85020636B0133C6
:1020B0006363E36B013BE363E36B23B9226813685B
:1020C00023F4802313602046FFF7DCFF38BD282966
:1020D000F2D1626B93F850301370E7E795073ED565
:1020E00085033CD528291DD1E16B69B112F47C5FD1
:1020F0000AD0626B93F850301370636B01336363E3
:10210000E36B013BE363E1E7E26B002ADED10221EE
:1021100059621A6822F4E0221A6020466164FFF7CF
:1021200055F9D3E7022058621A68182922F4E022F0
:102130001A60606403D12046FFF750F9C6E708290A
:1021400003D12046FFF79FFFC0E7B1F5807FBDD1E7
:10215000A36C2046002B31D1FFF771FFB6E71107C2
:1021600010D505030ED508225A621A68500205D50B
:102170001A6822F410221A60022363642046FFF7D3
:1021800083FFA3E7D1071CD5C5031AD501225A62E4
:102190001A68022522F4F8121A60A5641A6850071A
:1021A0000AD51A68206C22F004021A600A4B836375
:1021B000FFF728FE002889D065642046FFF710F954
:1021C00084E7D10682D5C20280D510225A62204609
:1021D000FFF711F97AE700BF41200008024A1368AF
:1021E00043F4807313607047007000400D4B10B5CE
:1021F0005B690C4628B99A0507D500F097F820B11D
:1022000010BD9B0501D400F089F8074A1369012C21
:1022100023F00403136101D130BFF1E740BF20BFB9
:1022200020BFEDE70070004000ED00E0064B1868AD
:1022300000F4C060B0F5806F1EBFD3F88000C0F31B
:1022400000204002704700BF00700040284B1A6811
:1022500018BB02F4C062B2F5806FD3F8802022F47C
:102260008072C3F8802040D11A6822F4C06242F420
:1022700000721A601F4A126832214A431E49B2FB9B
:10228000F1F201325969490500D522B95B69580557
:102290002BD503207047013AF4E7B0F5007F1FD13A
:1022A00002F4C062B2F5806FD3F8802042F48072ED
:1022B000C3F8802019D11A6822F4C06242F4007277
:1022C0001A600C4A126832214A430B49B2FBF1F200
:1022D000013259694905D9D5002AD7D0013AF8E722
:1022E00022F4C06242F480621A600020704700BF8E
:1022F00000700040C801002040420F00024A5368AD
:1023000043F400735360704700700040024A136842
:1023100043F010031360704700700040024A1368D6
:1023200043F4804313607047007000400C4A136808
:1023300023F4804313600B4B1B6832214B430A4943
:10234000B3FBF1F301335169890500D533B9536902
:1023500013F4007F14BF032000207047013BF2E715
:1023600000700040C801002040420F000B4A136873
:1023700023F0070343F002031360094B1A69012895
:1023800042F004021A6105D130BF1A6922F004023A
:102390001A61704740BF20BF20BFF6E700700040C1
:1023A00000ED00E037B51C4DAB6DDA00044618D5E2
:1023B000FFF73CFFB0F5007F23D1802C28D9A02C5B
:1023C0008CBF0224012415490A6822F00F0222431F
:1023D0000A60086800F00F00001B18BF012003B05E
:1023E00030BDAB6D43F08053AB65AB6D03F08053F4
:1023F0000193019BFFF71AFFAB6D23F08053AB6590
:10240000D8E77F2C06D8A4F170035C425C41DAE780
:102410000024D8E70224D6E7001002400020024042
:10242000204B9A68D96812F00C0205D00C2A2CD1E6
:1024300001F0030101292FD119681B48090755BF75
:10244000D3F894101968C1F30321C1F3031150F8B4
:10245000210032B3DA6802F00302022A1ED01349C7
:10246000032A08BF0846D968DA68C2F30622424345
:10247000D868C0F34160C1F303110130013140005D
:10248000B2FBF1F2B2FBF0F07047042A08D0082A40
:10249000064818BF002070470020DBE70448E2E749
:1024A00003487047001002407839010800127A0092
:1024B0000024F4002DE9F7430546002860D0954C30
:1024C0000368A668E768DB0606F00C0607F003075A
:1024D00076D51EB10C2E55D1012F53D12368980704
:1024E00002D5AB69002B4BD02368286A190756BF69
:1024F000D4F8943023681B0903F0F003984229D9DB
:10250000FFF750FF00283BD1236843F00803236006
:1025100023682A6A23F0F003134323606368EA699F
:1025200023F47F4343EA02236360FFF779FFA36844
:10253000794AC3F30313D35C03F01F03D840774BEE
:102540001860774B1868FEF707FA002838D003B0F8
:10255000BDE8F083236843F008032360236823F079
:10256000F003034323606368EA6923F47F4343EA8B
:1025700002236360002ED8D1FFF714FF0028D4D0C7
:102580000120E4E7AB69002B3AD0236843F0010354
:102590002360FEF7E7F9804623689A0728D5236869
:1025A00043F00803236023682A6A23F0F0031343EF
:1025B00023606368EA6923F47F4343EA022363608C
:1025C0002B68D8072DD42B6899076BD42B68180774
:1025D00000F1A8802B68590700F1CE802B689F0678
:1025E00000F13781AB6A002B40F05D810020AEE73F
:1025F000FEF7B8F9A0EB08000228CDD90320A6E722
:10260000236823F001032360FEF7ACF980462368BA
:102610009B07D5D5FEF7A6F9A0EB08000228F6D94E
:10262000ECE7082E03D00C2E08D1032F06D1236827
:102630009A03C8D56B68002BC5D1A1E76B68B3F5C9
:10264000803F10D1236843F480332360FEF78AF97A
:10265000804623689B03B6D4FEF784F9A0EB0800FC
:102660006428F6D9CAE7B3F5A02F04D1236843F450
:1026700080232360E6E7226822F480322260226809
:1026800022F480222260002BE0D1FEF76BF9804615
:102690002368980397D5FEF765F9A0EB0800642836
:1026A000F6D9ABE7042E03D00C2E10D1022F0ED199
:1026B0002368590503D5EB68002B3FF461AF6368CD
:1026C0002A6923F0FE4343EA026363607EE7EB6816
:1026D0007BB1236843F480732360FEF743F9074618
:1026E00023685A05EBD4FEF73DF9C01B0228F7D941
:1026F00084E7236823F480732360FEF733F90746E9
:1027000023685B057FF562AFFEF72CF9C01B02283A
:10271000F6D973E700100240B0390108C801002063
:10272000C40100206B699BB1D4F8943043F00103DD
:10273000C4F89430FEF716F90746D4F894309A0797
:102740003FF548AFFEF70EF9C01B0228F5D955E753
:10275000D4F8943023F00103C4F89430FEF702F962
:102760000746D4F894309B077FF534AFFEF7FAF8AC
:10277000C01B0228F5D941E7A36DDF0029D4A36D62
:1027800043F08053A365A36D03F080530193019B35
:102790004FF001089C4F3B68D8051DD5AB68012B55
:1027A0002BD1D4F8903043F00103C4F89030FEF7F9
:1027B000D9F841F288390746D4F890309A0742D5C3
:1027C000B8F1000F3FF40AAFA36D23F08053A36567
:1027D00004E74FF00008DDE73B6843F480733B609B
:1027E000FEF7C0F881463B68D905D7D4FEF7BAF8A2
:1027F000A0EB09000228F6D900E7052B06D1D4F892
:10280000903043F00403C4F89030CAE7D4F8902025
:1028100022F00102C4F89020D4F8902022F00402A3
:10282000C4F89020002BC2D1FEF79CF841F2883901
:102830000746D4F890309B07C2D5FEF793F8C01B2B
:102840004845F6D9DAE6FEF78DF8C01B4845B3D9FE
:10285000D4E66B6A9BB1D4F8983043F00103C4F816
:102860009830FEF77FF80746D4F8983098073FF580
:10287000B9AEFEF777F8C01B0228F5D9BEE6D4F84A
:10288000983023F00103C4F89830FEF76BF8074640
:10289000D4F8983099077FF5A5AEFEF763F8C01B12
:1028A0000228F5D9AAE6022B40F08C80E368EA6A98
:1028B00003F00301914222D1296B03F0F0020139A8
:1028C000B2EB011F1BD1696B03F4FE42B2EB012F87
:1028D00015D1A96B03F07842B2EBC16F0FD1EA6B4F
:1028E000520803F4C001013AB1EB425F07D12A6CF0
:1028F000520803F0C063013AB3EB426F49D00C2E8B
:102900003FF43EAE23685A013FF53AAE2368DB0040
:102910003FF536AE236823F080732360FEF722F87C
:10292000064623689F012ED4E268384B1340EA6ABA
:1029300013436A6B43EA0223AA6B43EAC2632A6B1E
:10294000013A43EA0213EA6B5208013A43EA42535E
:102950002A6C5208013A43EA4263E360236843F079
:1029600080732360E36843F08073E360FDF7FAFF50
:102970000546236898013FF539AEFDF7F3FF401B8C
:102980000228F6D93AE6FDF7EDFF801B0228C8D9E8
:1029900034E6236899013FF529AE236843F080733C
:1029A0002360E36843F08073E360FDF7DBFF0546D7
:1029B00023689A013FF51AAEFDF7D4FF401B0228A9
:1029C000F6D91BE60C2E3FF4DBAD236823F08073B1
:1029D0002360236813F0205F02BFE36823F0030342
:1029E000E360E36823F0887323F48033E360FDF74A
:1029F000B9FF054623689B017FF5F8ADFDF7B2FFEF
:102A0000401B0228F6D9F9E5007000400C809D01BA
:102A10002DE9F84305460E4610B90120BDE8F883BC
:102A20006E4A136803F00F038B4235D3296811F007
:102A300001083CD129688A0740F1B480684AA86837
:102A4000936823F0F00303439360644A136803F030
:102A50000F03B34200F2AF8011F0040F604C40F05E
:102A6000B6800B0706D5A3682A6923F4605343EAAE
:102A7000C203A360FFF7D4FCA3685A4AC3F303134D
:102A8000D35C03F01F03D840574B1860574B1868AE
:102A9000BDE8F843FDF760BF136823F00F030B4355
:102AA0001360136803F00F038B42B6D1BEE76F6863
:102AB0004B4C032F236862D19B01AED5E36803F032
:102AC0000303012B44D12368494A180755BFD4F8A2
:102AD00094302368C3F30323C3F3031352F8232072
:102AE000E36803F00303022B34D04248032B08BFF2
:102AF0000246E068E368C3F306235343E268C2F387
:102B00004162C0F30310013252000130B3FBF0F315
:102B1000B3FBF2F3384A93421ED84FF00008A36883
:102B200023F003033B43A360FDF71CFF41F2883908
:102B30000746A3686A6803F00C03B3EB820F3FF407
:102B400079AFFDF70FFFC01B4845F2D9032065E7B9
:102B50000022C5E7294ACCE7A36813F0F00F08D19B
:102B6000A36823F0F00343F08003A3604FF08008D4
:102B7000D5E78907D1D5AB68002BCED1F0E7022F7E
:102B800009D113F4003F3FF448AFFFF749FC1A4B5B
:102B90009842C2D9E4E717B913F0020FF3E713F430
:102BA000806FF0E7B8F1800F7FF44FAF0C4A936865
:102BB00023F0F00348E7136823F00F033343136057
:102BC000136803F00F03B3427FF427AF44E7A36811
:102BD000EA6823F4E0631343A36042E70020024065
:102BE00000100240B0390108C8010020C4010020D3
:102BF0007839010800127A0000B4C4040024F400FB
:102C0000054B064A9B68C3F30223D35C044A106851
:102C100003F01F03D840704700100240A839010894
:102C2000C8010020054B064A9B68C3F3C223D35C4E
:102C3000044A106803F01F03D84070470010024098
:102C4000A8390108C80100203F2303602A4B1A68F5
:102C5000510356BF1A684FF4A02202F4803242603A
:102C60001A6802F0010282615A68C2F30722C26147
:102C70001A6802F0F00202621A6802F48072C260FE
:102C80005A68C2F306620261D3F89020520756BF19
:102C9000D3F89020052202F001028260D3F894203C
:102CA00002F001024261D3F8982002F00102426270
:102CB0001A6812F0807F0CBF012202228262DA6859
:102CC00002F00302C262DA68C2F303120132026345
:102CD000DA68C2F306224263DA68C2F34152013273
:102CE0005200C263DA68C2F34162013252000264E8
:102CF000DB68DB0E83637047001002400F23036024
:102D00000B4B9A6802F0030242609A6802F0F002EC
:102D100082609A6802F4E062C2609B68DB0803F498
:102D2000E0630361034B1B6803F00F030B60704704
:102D30000010024000200240F8B53C4CE3689B07BD
:102D400005460E46006822D0E36803F00303834281
:102D500030D17BB3236823F080632360FDF702FE4C
:102D6000074623681A012ED46968AA68013912023D
:102D700086B3012E266947D12B695B08581E2C4B60
:102D80003340134343EA011343EA40532BE0022844
:102D90000CD0032810D001280CD123689F0718D528
:102DA000E36823F003030343E360D3E7236813F4EA
:102DB000806FF5D101200CE023689903F0D42368DB
:102DC00013F4802FF5E7FDF7CDFDC01B0228C8D90D
:102DD0000320F8BDEB68206942EAC363154A02404C
:102DE000134343EA01132361236843F080632360A4
:102DF000FDF7B8FD064623681B0110D52369AA69B3
:102E0000134323610020E4E76B695B08581E0A4BFB
:102E10003340134343EA011343EA4063E3E7FDF71A
:102E2000A1FD801B0228E6D9D2E700BF00100240B6
:102E30000F809FFF0F80FF070F80FFF970B52F4CA9
:102E4000E3689B070546006826D0E36803F00303A8
:102E5000834234D1002B32D0236823F08053236087
:102E6000FDF780FD064623689A0031D4D5E9022398
:102E7000DB06616943EA0223214A0A4013436A6878
:102E8000013A43EA02136361236843F080532360ED
:102E9000FDF768FD064627E002280CD0032810D075
:102EA00001280CD123689E0718D5E36823F003039B
:102EB0000343E360D0E7236813F4806FF5D101206A
:102EC0000CE023689903F0D4236813F4802FF5E70E
:102ED000FDF748FD801B0228C5D9032070BDFDF712
:102EE00041FD801B0228F8D823689B00F7D5636951
:102EF000AA69134363610020F0E700BF001002409D
:102F00000F80FF0703681B052DE9F347044627D50B
:102F1000C16E402926D016D851B320292FD00125C3
:102F20002368DF040DD5216FB1F5007F00F08081AB
:102F30002CD8002900F08281B1F5807F00F08381D8
:102F400001252F4635E0602901D08029E7D10E4ABE
:102F5000E16ED2F89C3023F0E0030B43C2F89C30C2
:102F60000025DDE7084AD36843F48033D360EEE7F9
:102F70000430FFF7E1FE05460028D1D1E7E7203015
:102F8000FFF75CFFF7E700BF00100240B1F5407F9C
:102F900002D0B1F5806FD3D12F46002F40F0588179
:102FA000B24A216FD2F89C3023F4E0630B43C2F89D
:102FB0009C3023689E0338D5AC4EB36DD80000F129
:102FC0004981B36D43F08053B365B36D03F0805313
:102FD0000193019B4FF00108DFF89492D9F800307B
:102FE00043F48073C9F80030FDF7BCFC8246D9F881
:102FF0000030D90540F131817FB9D6F8903013F413
:10300000407340F03781D6F89030D4F8902023F404
:1030100040731343C6F890302F46B8F1000F03D029
:10302000B36D23F08053B3653D462368DE0708D5B2
:103030008E49E06BD1F8882022F003020243C1F8E8
:103040008820980708D58949206CD1F8882022F07B
:103050000C020243C1F88820590708D58349606CE7
:10306000D1F8882022F030020243C1F888201A07E4
:1030700008D57E49A06CD1F8882022F0C002024316
:10308000C1F88820DF0608D57849E06CD1F888209F
:1030900022F440720243C1F888209E0608D5734985
:1030A000206DD1F8882022F440620243C1F88820C4
:1030B000980508D56D49606ED1F8882022F4402229
:1030C0000243C1F88820590508D56849A06ED1F897
:1030D000882022F440120243C1F888205A0608D5FD
:1030E0006249606DD1F8882022F440520243C1F851
:1030F00088201F0608D55D49A06DD1F8882022F4EC
:1031000040420243C1F88820DE0508D55749E06DEA
:10311000D1F8882022F440320243C1F88820D80236
:1031200008D55249206ED1F89C2022F003020243B8
:10313000C1F89C20990410D54C4A616FD2F88830B0
:1031400023F040630B43B1F1006FC2F8883040F0C8
:10315000BB80D36843F48013D3602E4623681A03E0
:103160000FD5A16F414BB1F5804FD3F89C2040F0B3
:10317000B88042F48042C3F89C20DA6842F480327E
:10318000DA60374623685B0310D5384AE16FD2F81E
:10319000883023F040630B43B1F1006FC2F88830F0
:1031A00040F0B180D36843F48013D3603D46236878
:1031B0005E040DD52D49D4F88020D1F8883023F055
:1031C00040531343B2F1805FC1F8883000F0A8800B
:1031D00028462268D50309D52449D4F88450D1F86B
:1031E0009C3023F004032B43C1F89C30910209D595
:1031F0001E49D4F88850D1F89C3023F018032B4393
:10320000C1F89C30D30110D5184AD4F88C10D2F8EC
:103210009C3023F440130B43B1F5001FC2F89C30DF
:1032200003D1D36843F48013D36002B0BDE8F087C4
:103230000E4AD36843F48033D360ADE6201DFFF718
:103240007BFD0746A9E604F12000FFF7F7FDF8E74C
:103250003D46AEE64FF00008BEE6FDF783FBA0EB6F
:103260000A0002287FF6C3AE0327D6E6001002400C
:1032700000700040D4F8902093423FF4C4AED6F8DA
:103280009020D6F8903043F48033C6F89030D6F8CA
:10329000903022F4407123F48033D207C6F8903086
:1032A000C6F890107FF5AFAEFDF75CFB41F28839B0
:1032B0000746D6F890309B073FF5A5AEFDF752FBC9
:1032C000C01B4845F5D9CFE7B1F1806F7FF445AF1A
:1032D0000121201DFFF730FD064600283FF43DAFD9
:1032E0003CE722F48042C3F89C20D3F8882022F0E7
:1032F00040620A43B1F1006FC3F8882018D1DA6840
:1033000042F480123CE7B1F1806F7FF44FAF0121AE
:10331000201DFFF711FD054600283FF447AF46E7A3
:103320000221201DFFF708FD00283FF451AF50E7B0
:10333000B1F1806F7FF425AF0121201DFFF7FCFC68
:10334000074600283FF41DAF1CE700BF024A136880
:1033500043F0040313607047001002407047000000
:10336000F0B503685D689A68560685B004464FEA72
:103370009211C2F3801708D4D60706D56E0604D57D
:10338000C36C05B0BDE8F0401847960704D5280681
:1033900002D5236D2046F4E741EA521102F4807011
:1033A00001F0010101434FEA521657D0AA0655D544
:1033B0007FB194F85D20032A4FF0000148D0226EBF
:1033C00042F0040222660091DA6800929A68009244
:1033D000009AF1070CD5226E42F00102226600220B
:1033E00002929A6802921A6822F040021A60029AC7
:1033F00040B1226E42F008022266002203929A68CF
:103400000392039A226E4AB35A6822F0E0025A608D
:10341000012284F85D20AA0722D05A68A06D22F00C
:1034200003025A6040B1104B8363FEF7EBFC18B106
:10343000236E43F040032366606D78B10A4B8363CB
:10344000FEF7E0FC50B1236E43F04003236605E035
:103450000191DA6801929B680193019B05B0F0BD70
:103460002046FFF77BFFF9E76D34000808B5806A56
:103470000023A0F84630C387FFF770FF08BD0000A7
:10348000036A23F0010370B50362036A446882692A
:103490000D6822F4803222F073022A438D6823F0F3
:1034A00002032B431B4DA8420FD005F50065A8422F
:1034B0000BD005F54065A84207D005F58065A84208
:1034C00003D005F58065A8421ED1CD6823F008031E
:1034D0002B43104DA84223F004030FD005F50065DF
:1034E000A8420BD005F54065A84207D005F58065D8
:1034F000A84203D005F58065A84205D124F44075A3
:10350000D1E9054634432C43446082614A684263F2
:10351000036270BD002C0140036A23F4807370B510
:103520000362036A4468C2690D6822F4803222F0A3
:1035300073022A438D6823F4007343EA0523164D72
:10354000A84203D005F50065A8421AD1CD6823F43E
:10355000006343EA0523104DA84223F4806303D09F
:1035600005F50065A84206D124F44055D1E9054689
:10357000344345EA04144460C2614A68C26303628A
:1035800070BD064DA842EFD005F58065A842EBD08E
:1035900005F58065E6E700BF002C014000400140D2
:1035A000036A23F4805330B50362036A4468C26936
:1035B0000D6822F0807222F4E64242EA05228D680C
:1035C00023F4005343EA05330E4DA8420FD005F50E
:1035D0000065A8420BD005F54065A84207D005F567
:1035E0008065A84203D005F58065A84204D14D69E5
:1035F00024F4804444EA85144460C2614A68026449
:10360000036230BD002C0140036A23F4803330B5DF
:103610000362036A4468426D0D6822F4803222F02E
:1036200070022A438D6823F4003343EA05430F4DAB
:10363000A8420FD005F50065A8420BD005F54065FE
:10364000A84207D005F58065A84203D005F580653E
:10365000A84204D14D6924F4803444EA052444602E
:1036600042654A688265036230BD00BF002C01409C
:10367000036A23F4801330B50362036A4468426D21
:103680000D6822F0807222F4E04242EA05228D6841
:1036900023F4001343EA05530E4DA8420FD005F55D
:1036A0000065A8420BD005F54065A84207D005F596
:1036B0008065A84203D005F58065A84204D14D6914
:1036C00024F4802444EA8524446042654A68C26543
:1036D000036230BD002C0140704770472F4A0368D9
:1036E000904212D0B0F1804F0FD0A2F594329042A8
:1036F0000BD002F58062904207D002F580629042C2
:1037000003D002F5943290423ED14A6823F0700310
:103710001343224A904212D0B0F1804F0FD0A2F54D
:10372000943290420BD002F58062904207D002F5AD
:103730008062904203D002F59432904203D1CA686D
:1037400023F4407313434A6923F080031343036057
:103750008B68C3620B688362104B98420FD003F5ED
:10376000006398420BD003F54063984207D003F5FD
:103770008063984203D003F58063984201D10B69BE
:103780000363012343617047054A9042D7D002F595
:1037900080629042D3D002F58062CEE7002C0140D7
:1037A0000040014010B5044650B390F83D3003F09E
:1037B000FF021BB980F83C20FFF78EFF0223206830
:1037C00084F83D30211DFFF789FF012384F848303C
:1037D000002084F83E3084F83F3084F8403084F88C
:1037E000413084F8423084F8433084F8443084F81F
:1037F000453084F8463084F8473084F83D3010BDB9
:103800000120FCE710B5044650B390F83D3003F0BA
:10381000FF021BB980F83C20FFF75FFF02232068FE
:1038200084F83D30211DFFF759FF012384F848300B
:10383000002084F83E3084F83F3084F8403084F82B
:10384000413084F8423084F8433084F8443084F8BE
:10385000453084F8463084F8473084F83D3010BD58
:103860000120FCE7036A23F0100370B50362036ACA
:10387000446882690D6822F0807222F4E64242EACE
:1038800005228D6823F0200343EA0513154DA84255
:1038900003D005F50065A8421AD1CD6823F0800356
:1038A00043EA05130F4DA84223F0400303D005F56A
:1038B0000065A84206D124F44065D1E905463443A9
:1038C00045EA8404446082614A688263036270BD91
:1038D000054DA842EFD005F58065A842EBD005F56F
:1038E0008065E6E7002C01400040014038B590F8C3
:1038F0003C30012B04466FD00C2A4DD008D8042A46
:103900002AD0082A38D0BAB1002084F83C0038BD4B
:10391000102A51D0142AF7D10068FFF7A9FE436D91
:103920000A6943F400634365436D23F48063436590
:10393000436D43EA02234DE00068FFF7A1FD836970
:103940000A6943F008038361836923F004038361F8
:10395000836913438361D7E70068FFF783FF8369B7
:103960000A6943F400638361836923F4806383619C
:10397000836943EA0223EDE70068FFF7CDFDC369E1
:103980000A6943F00803C361C36923F00403C361F8
:10399000C3691343C361B7E70068FFF701FEC3695A
:1039A0000A6943F40063C361C36923F48063C3619C
:1039B000C36943EA0223EDE70068FFF725FE436D84
:1039C0000A6943F008034365436D23F0040343652C
:1039D000436D1343436597E7022098E7036A10B5E8
:1039E00001F01F0101248C4023EA04030362036AEF
:1039F0008A401A43026210BD082908B51BD005D8B9
:103A000059B104290FD090F8433016E00C2923D087
:103A10001029F8D190F842300FE090F83E30012B99
:103A200022D0012043E090F83F30012BF9D102234E
:103A300080F83F301BE090F84030013B18BF012375
:103A4000002BEED10C294FF0020334D007D80829FF
:103A50002ED080F843300AE090F84130EDE710298D
:103A6000F7D180F8423002E0022380F83E3000684F
:103A70000122FFF7B3FF224B98421FD003F50063EA
:103A800098421BD003F54063984217D003F580633A
:103A9000984213D003F5806398420FD0B0F1804F65
:103AA0001FD18268174B1340062B24D1002008BD7C
:103AB00080F84030DBE780F84130D8E7436C43F4CE
:103AC000004343640E4B9842EBD00F4B9842E8D032
:103AD00003F540639842E4D0036843F001030360B8
:103AE000E4E70A4B9842DCD003F580639842D8D0D3
:103AF00003F58063E7E7B3F5803FEDD1D6E700BF7C
:103B0000002C014007000100003401400004004087
:103B1000FFF772BF036A10B501F01F0104248C4047
:103B200023EA04030362036A8A401A43026210BD57
:103B300008B529B990F84430012B1DD001204DE083
:103B4000042907D190F84530012BF7D1022380F8E2
:103B5000453014E0082907D190F84630012BEDD10B
:103B6000022380F846300AE090F84730012BE5D177
:103B7000022380F8473002E0022380F844300068D6
:103B80000422FFF7C7FF436C43F400434364144B24
:103B9000984216D0B0F1804F13D0A3F594339842D9
:103BA0000FD003F5806398420BD003F580639842F1
:103BB00007D003F59433984203D003F5406398424D
:103BC00007D18268074B1340062B06D0B3F5803F20
:103BD00003D0036843F001030360002008BD00BF69
:103BE000002C014007000100FFF7A2BF7047000052
:103BF000F8B50446C0692169A26823680A4361696F
:103C00001D680A438549024329400A431A605A68DD
:103C1000E16822F440520A435A60814AA169934202
:103C20001CBF226A11439A6822F06E4222F430626D
:103C30000A439A60DA6A616A22F00F020A43DA6282
:103C4000784A934231D1784BD3F8883003F003039C
:103C5000022B00F0DA80032B00F0D080012B00F063
:103C6000C780B0F5004F40F0D580FEF7DBFF00289D
:103C700078D061686D4B626A33F81220B0FBF2F2C3
:103C80004B0803EB4203B3FBF1F39AB2A2F110002D
:103C90004FF6EF71884220D823F00F03C2F342029F
:103CA000216813439BB2CB605CE0614A934216D11A
:103CB0005D4BD3F8883003F00C03082B00F0A5808F
:103CC00008D8002B40F09480B0F5004F78D1FEF773
:103CD00097FFCCE70C2B00F09180012043E0554A80
:103CE00093420AD1504BD3F8883003F03003202B95
:103CF00000F08B80E5D9302BEDE74F4A934209D194
:103D0000494BD3F8883003F0C003802B7DD0D8D93D
:103D1000C02BE0E7494A93420BD1434BD3F888309C
:103D200003F44073B3F5007F6FD0CAD9B3F5407F79
:103D3000D1E73B4A9342D0D13B4BD3F8883003F4D0
:103D40004063B3F5006F15D003D843B9FEF758FFB1
:103D500007E0B3F5406FC0D14FF400400BE0FEF731
:103D60005FFB40B900204FF00113A3660023C4E9B4
:103D70001C33F8BD324865682C4B626A05EB45017F
:103D800033F81220B0FBF2F39942A6D8B3EB053F0B
:103D9000A3D8002319460EF013F90023194606464E
:103DA0004FF4807768082A46E6FB07010EF008F911
:103DB000244BA0F540729A428FD82368D860D1E78F
:103DC000FEF71EFF0028CDD06368616A174A32F8FB
:103DD0001120B0FBF2F000EB5300B0FBF3F080B227
:103DE000A0F110024FF6EF73E5E7FEF719FBE9E7E4
:103DF000B0F5004FF9D1FEF713FB38E7B0F5004FEF
:103E00003FF437AF4FF40040DEE7B0F5004F0C4809
:103E1000DAD12EE7FEF706FFD4E700BFF369FFCF44
:103E20000080004000380140001002406039010865
:103E30000044004000480040004C0040005000405A
:103E40000024F400FFFC0F00836ADA0710B506D5E2
:103E50000168C46A4A6822F4003222434A609C071F
:103E600006D50168046B4A6822F4803222434A6016
:103E7000590706D50168446B4A6822F48022224320
:103E80004A601A0706D50168846B4A6822F400422A
:103E900022434A60DC0606D50168C46B8A6822F4B6
:103EA000805222438A60990606D50168046C8A68AC
:103EB00022F4005222438A605A060FD50168446CEE
:103EC0004A6822F480122243B4F5801F4A6005D16B
:103ED0004A68846C22F4C00222434A601B0606D55D
:103EE0000268C16C536823F400230B43536010BD78
:103EF0002DE9F843089E05468846174699462A68E4
:103F0000D06938EA00000CBF01230023BB4201D076
:103F100000201AE0701CF3D0FCF724FD2C68A0EB05
:103F20000900B042236800D88EB923F4D07323600F
:103F3000A36823F00103A3602023C5F88430C5F8EB
:103F40008830002385F880300320BDE8F8835907C6
:103F5000D5D5E3691A05D2D54FF4006323622368EF
:103F600023F4D0732360A36823F00103A36020230C
:103F7000C5F88430C5F88830C5F88C30E1E773B5F2
:103F800004460026C0F88C60FCF7ECFC23681B6834
:103F90001A07054618D423681B685B070AD56FF01B
:103FA0007E43009300222B464FF480012046FFF70A
:103FB0009FFFA8B920230020C4F8843084F8800033
:103FC000C4F88830E0660CE06FF07E430093324620
:103FD00003464FF400112046FFF78AFF0028DAD08D
:103FE000032002B070BD10B5044650B3D0F8843041
:103FF0001BB980F88030FFF7F9FD22682423C4F84C
:104000008430136823F0010313602046FFF7F0FDAE
:10401000012816D0A36A13B12046FFF715FF2368C5
:104020005A6822F490425A609A6822F02A029A60F2
:104030001A6842F0010220461A60BDE81040FFF7FE
:104040009EBF012010BD90F88030012B1FBF026879
:10405000136843F0020313601DBF002380F8803013
:1040600018460220704790F88030012B1FBF02686D
:10407000136823F0020313601DBF002380F8803013
:1040800018460220704700000F4B104A9A60D3F880
:10409000882042F47002C3F888200D4B1A68002172
:1040A00042F001021A6099601A6822F0A85222F4C4
:1040B00010221A604FF48052DA601A6822F48022CB
:1040C0001A609961704700BF00ED00E00000000831
:1040D0000010024021490B681B0754BFD1F89430EF
:1040E0000B688A6802F00C0254BFC3F30323C3F3C6
:1040F0000313082A2FD01A480C2A50F823300CD06A
:104100001848042A08BF03468A681749C2F30312F5
:104110008A5CD340154A13607047C868CA6800F0CB
:104120000300C2F30312022802F101020FD0032898
:104130000FD0B3FBF2F2CB68C868C3F30623534336
:10414000C0F3416201325200B3FBF2F3DCE7054BEE
:10415000EFE7074BEDE7064BD6E700BF0010024044
:10416000783901080024F400B0390108C8010020A2
:1041700000127A007047036801221B69002118476A
:10418000036800221B69114618476FF0150070473D
:1041900080F834130020704780F8501200207047D8
:1041A00090F83403704790F8500270470020704731
:1041B000012070476FF01C0070470B6803604B686C
:1041C00043608B688360704710B4D0E901320168A6
:1041D000541001EB6200D20748BF0A5910BC48BF17
:1041E000D358184700207047012070476FF01C001B
:1041F0007047C3680BB19B68184770470C4B10B5EC
:10420000036048330446C0F8E430D0F8380310B1F6
:1042100003685B68984704F54970FFF7EAFF04F507
:10422000407002F059F9204600F054FC204610BDC1
:10423000C8390108A0F1E400FFF7E0BF10B504465B
:10424000FFF7DCFF20464FF44F7102F0D4F8204610
:1042500010BDA0F1E400FFF7F1BFD0F8380308B5B6
:1042600020B100F0C1FA003818BF012008BD30B5F8
:10427000002485B0224669460546039400F0E2FB1F
:104280006846FFF7B6FF85F8364305B030BD30B558
:1042900085B00024012269460546039400F0D2FB54
:1042A0006846FFF7A6FF85F8354305B030BD10B569
:1042B000044601F0BFFBD4E940239A420ABF94F8B8
:1042C0000841002484F0010401F0CAFB204610BD1F
:1042D00038B500F5407400F5FA75204602F0C6F8CE
:1042E0002846FFF7E4FF20B1204602F0DBF800206B
:1042F00038BD204602F0D6F8012002F07EF8ECE747
:10430000A0F1E400FFF7E4BF38B50546E830FFF759
:10431000CEFF80F001042846E4B2FFF79EFF18B1FB
:1043200044F40054204638BD95F8FC2244F01003B4
:104330001BB2824208BF1C46F4E7A0F1E400FFF77D
:10434000E3BF000038B504460D4601F073FBD4F816
:1043500000312A78E2540133B3F5807F05D90D4945
:104360000D484FF4AF7201F091FA94F8082108BF9C
:104370000023C4F800312AB1C4F80431BDE8384044
:1043800001F06EBBD4F804219A4204BF012384F8E3
:104390000831F3E7B12B0108C22B010870B50446C0
:1043A0000E4601F047FBD4E940239A4202D194F82B
:1043B0000851B5B1E35C3370D4F804310133B3F57F
:1043C000807F05D909490A484FF4AF7201F05EFABF
:1043D0004FF0000208BF1346C4F8043184F80821E6
:1043E000012501F03DFB284670BD00BFB12B01083F
:1043F000C22B0108C36810B52BB9054905484FF415
:10440000FD7201F043FABDE810401B68184700BF79
:104410001B2C0108262C010870B505460E4605F533
:10442000497401F007FBB4420AD02046FFF7E1FED1
:10443000F368C5F830331BB15B68314620469847B6
:10444000D5F8303343B147F6FF712846FFF75CFFDC
:1044500010B12046FFF7CEFFBDE8704001F000BB71
:10446000A0F1E400FFF7D8BF08B5D0F830331BB196
:1044700000F54970FFF7BEFF08BD73B50446E8308C
:10448000FFF715FF064694F8F0317BB9204600F09F
:10449000B7FA58B1204600F05FFB0DF107018DF827
:1044A000070004F1E800FFF74DFFECE794F836331E
:1044B0002BB194F8F03113B12046FFF7D8FE56B176
:1044C00004F1E800FFF7F3FE28B9204602B0BDE88A
:1044D0007040FFF7C9BF02B070BD00001FB50446B1
:1044E00001F0A8FA94F8BC30C3B194F83633ABB9F4
:1044F0002046FFF7C2FF94F8F0217AB90A4B0393E4
:104500000A4B009469462046CDE9013200F09AFA40
:104510006846FFF76EFE012384F8363304B0BDE829
:10452000104001F09DBA00BF583A01087B440008D2
:1045300038B5044600F020FA0F4B236000254833BD
:10454000C4F8E430C4E97A55C4E9BD5584F8F051A3
:1045500084F8FC5204F5407001F080FF01232046EE
:10456000C4F83053A4F8343384F83653C4F83853BD
:10457000FFF7B4FF204638BDC83901082DE9F843DC
:104580000746894615468AB307F5407001F06EFF6D
:1045900007F1E800FFF78BFEB8B9044607F1E80021
:1045A000FFF785FE40B909EB040107F1E80001348B
:1045B000FFF7F4FEA542F1D13846FFF78FFF07F56C
:1045C000407001F06FFF204608E097F8343307F59C
:1045D00040702BB901F066FF6FF00A00BDE8F88368
:1045E00001F060FF012001F008FFCDE71046F5E77C
:1045F000A0F1E400FFF7C2BF70B504460E4600F517
:10460000407001F033FF3146204600F0B8FA2046F2
:10461000FFF764FF04F5407001F044FF002070BD17
:10462000A0F1E400FFF7E8BF73B5044690F8FC5230
:10463000204600F0F6F960B10DF1070104F5FA70BB
:10464000FFF7ACFE28B19DF80710204600F087FA6E
:10465000EEE794F835333BB104F5FA70FFF727FE27
:1046600010B12046FFF713FE65B194F8FC324BB948
:104670002046FFF7F2FD28B9204602B0BDE87040A1
:10468000FFF7F2BE02B070BDF8B505460C461646FF
:1046900000F5FA773846FFF70AFE20B1A719BC42A9
:1046A00005D13046F8BD2846FFF7BEFFF2E714F803
:1046B000011B284600F053FAF1E700001FB504463D
:1046C00001F0B8F994F8BD30DBB194F83533C3B9D3
:1046D0002046FFF7A9FF04F5FA70FFF7E8FD80B95F
:1046E0000A4B03930A4B0094CDE90130012269463D
:1046F000204600F0A7F96846FFF77BFD012384F808
:10470000353304B0BDE8104001F0AAB9583A0108A9
:10471000294600082DE9F04706460F461546002AAF
:1047200044D001F084F9044630B12A463946304677
:10473000BDE8F047FFF7A8BF06F5407001F096FE10
:1047400096F8FC327BB9A7EB040AA5420AEB0407F2
:104750001CD996F8FC32CBB9394606F5FA70FFF74A
:10476000F1FD0134F1E796F83433A3B106F540705A
:1047700001F098FE012001F040FE06F5407001F0C6
:1047800075FE96F8FC32002BF0D1DCE73046FFF7DF
:1047900095FFA542D4D806F5407001F083FE002CA9
:1047A00014BF20466FF00A00BDE8F0871046FBE713
:1047B000A0F1E400FFF7AEBF70B504460E4600F569
:1047C000407001F053FE3146204600F023FA2046A7
:1047D000FFF774FF04F5407001F064FE002070BD27
:1047E000A0F1E400FFF7E8BF83681A6843681A4243
:1047F00014BF012000207047B0F91410FCF70CBD65
:1048000038B504460D4601F015F929462046FCF757
:10481000E1FBBDE8384001F023B938B504460D4648
:1048200001F008F929462046FCF7C4FDBDE83840F0
:1048300001F016B990F8203010B5044623B901F004
:1048400045FB012384F8203010BD90F8203010B5CE
:10485000044623B101F050FB002384F8203010BD42
:1048600010B5044601F0E6F894F8213043B9E36945
:10487000204698472046FFF7DDFF012384F82130CA
:10488000BDE8104001F0ECB810B5074AC261002342
:104890000022044681828361038442628362FFF7BF
:1048A000DFFF204610BD00BFF947000810B50446E1
:1048B00001F0C0F894F8213043B12046FCF784FBA6
:1048C0002046FFF7C2FF002384F82130BDE81040E6
:1048D00001F0C6B810B50446FFF7E8FF204610BD4A
:1048E000CB68C3600BB15B6818477047704742687C
:1048F00010B482B1D0E9033404F0010123B951B1FD
:1049000061105158CB5801E00029F9D1816802EBC0
:10491000640010BC184710BC7047000070B5044616
:10492000D0F8C4104C3000F09BFCD4F8D82092B1E1
:10493000D4F8C8301BB9D4F8CC30D8070BD5D4E99B
:1049400037314E1004EB6100C90744BFA159CB5861
:1049500094F8D0109847D4F8B81004F14C00FCF744
:104960006FFE224604F14C000249BDE87040FBF79F
:10497000BFBD00BF6D4B0008F8B51E4B03601E4B5A
:10498000436000251D4B856017464C2204460E46A9
:10499000C0E90555C0E90755C36085844563456492
:1049A000A0F8485029460061104407F02FFAC4E9E6
:1049B0002D57C4F8A45040F20113A4F8BC30B388BA
:1049C000A4F8BE30B389A4F8C0304FF6FF73204678
:1049D000C4E93165C4E93655C4F8CC5084F8D050E8
:1049E000A4F8D230A4F8D430C4F8E050FFF796FF12
:1049F0002046F8BD6C3A01081D490008EF48000840
:104A000038B50546044655F84C3B1B689847284680
:104A1000FCF7ACFD236805465B68204698472846AE
:104A200038BD38B50546044655F84C3B1B689847D9
:104A30002846FCF7ABFD236805465B68204698478F
:104A4000284638BD03682DE9F04105461B68164627
:104A50000F46984795F8BC30340103B1AEB195F8D4
:104A6000BD300BB1012E10D098342C44BC4206D07E
:104A70002046FFF7BEFB39462046FFF731FF2B6883
:104A800028465B68BDE8F0411847983400F0D2FF33
:104A90002C44FA68E368A2B10BB901F017FAA742F7
:104AA00006D02046FFF7A5FB39462046FFF718FF42
:104AB0000122314605F14C00FBF726FD00F0D0FF46
:104AC000DDE70BB101F018FA2046FFF792FB002258
:104AD000E260EEE77FB51A4B0360002504462E46E0
:104AE0002A46694620460396FFF7ACFF6846FFF763
:104AF00080FB6B1C022B4FF00105F1D194F8BC3008
:104B000013B994F8BD301BB104F14C00FCF78EFCD6
:104B100004F1A800FFF76DFB04F19800FFF769FBB3
:104B200004F13800FFF765FB04F12800FFF761FB93
:104B3000206A08B100F0DEFC204604B070BD00BF62
:104B40006C3A010810B50446FFF7C4FF2046E42183
:104B500001F051FC204610BD4C30FBF743BD10B5B1
:104B60004C300C46FBF774FD204610BD00EB0110E5
:104B7000983008B5C3680BB1FFF73CFC08BD03686B
:104B800070B504461B680D46984794F8BC30AB429C
:104B900017D0E5B900F04EFF2A46294604F14C0033
:104BA000FBF7B2FCD4F8A4308BBB00F059FF84F8BB
:104BB000BC5035B994F8BD301BB904F14C00FCF77A
:104BC00035FC236820465B68BDE87040184794F8C0
:104BD000BD304BB9D4E90132511004EB6200D20769
:104BE00044BF6258D358984700F024FFD4F8A4304B
:104BF000002BDAD004F19800FFF7FCFB01F066F916
:104C00000122002104F14C00FBF77EFCCDE701F00E
:104C100073F9CAE7036870B504461B680D469847E8
:104C200094F8BD30AB4217D0E5B900F003FF2A4637
:104C3000012104F14C00FBF767FCD4F8B4308BBBC6
:104C400000F00EFF84F8BD5035B994F8BC301BB9A4
:104C500004F14C00FCF7EAFB236820465B68BDE8E2
:104C60007040184794F8BC304BB9D4E90132511068
:104C700004EB6200D20744BF6258D358984700F053
:104C8000D9FED4F8B430002BDAD004F1A800FFF735
:104C9000B1FB01F01BF90122114604F14C00FBF7B6
:104CA00033FCCDE701F028F9CAE703681B68184711
:104CB00010B50446074B236000220023C4E90223F9
:104CC00000230846A161C4E90433034900F03AFA1D
:104CD000204610BD843A0108AB4C000807B500908F
:104CE00000F10801806900F06AFA03B000BD00F12C
:104CF0000801806900F07DBAEFF3108372B6054AAF
:104D0000117831B90449DB4303F001030B7001232F
:104D100013707047B4110020B511002008B5EFF3EF
:104D20001083DB4313F0010304D006490648362202
:104D300000F0ACFD054A1370054B1B7803B162B659
:104D400008BD00BF6A2C0108862C0108B4110020A0
:104D5000B5110020014B1878704700BFB411002036
:104D6000F8B50F46044615461E46FBF7C7FD01374A
:104D70000FD022685EB1A3681A6020460121FBF7BC
:104D8000E3FD29462046BDE8F840FBF7D9BDE368BE
:104D9000F2E7F8BD13460022FFF7E2BF0022FFF75B
:104DA000F9BF000000487047883A0108024B1B68B1
:104DB0000BB1024818477047CC010020883A01081F
:104DC00007B502468A4208460AD0531C08D0013073
:104DD00005D0002303490448009300F0C1FF1046AA
:104DE00003B000BDA02C010830010180B1F90030F2
:104DF0005A1C01D118467047834201D14868704758
:104E00000C31F3E7421C13B504460AD0FFF7EEFF5E
:104E1000431C06D10023044904480093224600F0B5
:104E20009FFF02B010BD00BFB12C0108300101800E
:104E3000B1F900305A1C01D118467047834201D1A4
:104E4000886870470C31F3E72DE9F041456895F823
:104E500032706FBB03685B6898472C6A844227D026
:104E60002B69A96895F934202862041B1C40A1FB1A
:104E70000441B2B1686A061941F10001BA4219DB76
:104E8000C2F12000A2F1200326FA02F401FA00F098
:104E900021FA03F304431C43D14004FA02F2B21A8C
:104EA0006A62D5E90A321B1941EB0201C5E90A31F0
:104EB000BDE8F081D5F80C803B46424630460DF007
:104EC0007FF8044608FB10606862EAE7824206D970
:104ED0008A420BD9884294BF002001207047884243
:104EE00006D98A428CBF00200120704701207047FC
:104EF000002070472DE9F041446894F832300646AE
:104F0000002B61D194F83180B8F1000F5CD1FFF72C
:104F10009BFF6368002B59D0D3E90003D4E90A1240
:104F200081429A4104D33368BDE8F0415B69184778
:104F30007568D5E90A12401A63EB020CD5E90572CF
:104F4000EB69824273EB0C031FD3EB68A3FB0001F8
:104F500003FB0C1195F93330A3B1AA6802F1FF3CB1
:104F60001CEB000041F10001002B1BDBC3F1200C06
:104F7000A3F12002D84001FA0CFC40EA0C0021FA0F
:104F800002F21043874228BF07462B6A1F442B6951
:104F90001F40236ABB4209D11149124840F2C9128D
:104FA00000F074FC43460DF00BF8EBE7336838462D
:104FB0001B69984733685B6898473A460146206A00
:104FC000FFF784FF0028AED1BDE8F0816369206A55
:104FD0002269184433681040BDE8F0411B69184746
:104FE000092D01081B2D01084368F7B593F83020FF
:104FF0000546002A76D193F83230002B72D103682F
:105000001B6898472B68DB69984703682BB93649BA
:10501000364800931A4600F0A3FE354A1E46114654
:10502000B6FBF2F201FB12620E46002AF7D16C6861
:105030002F4AB2FBF1FC0126C4F808C01F22013A36
:1050400003D306FA02F7BC45F9D184F83320B3FB49
:10505000F1F21F23E260012101FA03F6B24201D00E
:10506000013BF9D284F834304168081F1C2805D967
:1050700000232049204800931A46CCE720291CBF72
:1050800001238B404FF007064FF0000706FA00F6A9
:1050900014BF03F1FF334FF0FF33501E47F1FF31D0
:1050A000E6FB0C01236166613B460CF089FF2B682F
:1050B000C4E90601C4E900775B6898476B68206221
:1050C000002101220020C3E90A015F6228461A86F6
:1050D00083F83270FFF7B8FE284603B0BDE8F04011
:1050E000FFF708BF03B0F0BD3F2D01080E0104809B
:1050F00040420F00582D010805010480F3B44568B3
:10510000069C8C60C1E900236C68002634B9CC6031
:105110007EB9696002B0F0BCFFF7ECBE676801972A
:105120002768BA42019F73EB0707F0D32646E4686D
:10513000ECE7F160D5E90A4194429941EAD202B024
:10514000F0BC704738B505460C46FFF74DFF00F040
:1051500071FC6B681C60BDE8384000F081BC70B524
:10516000054600F067FCD5E90034DB68984794F801
:1051700032301BB1BDE8704000F072BC012384F8EE
:1051800031306368A3B12846FFF75EFE6368D4E957
:105190000A62D3E9000186428A4109D36A68DB6862
:1051A000526863602368002BEBD090689847E8E76B
:1051B000002384F831302846FFF79CFEDAE72DE91A
:1051C000F34104460D4616461F46DDF8208000F0E8
:1051D00031FC2046FFF738FECDF8008032463B46D2
:1051E00029462046FFF78AFF02B0BDE8F04100F0F3
:1051F00037BC38B505460C4600F01CFC6A6853689D
:10520000A34209D1DB6853602846FFF773FEBDE86F
:10521000384000F025BC1346002BF8D0DA68A242D3
:10522000F9D1E268DA60F2E738B50446FFF7DCFE50
:1052300000F000FC2046FFF707FE6368D3E90A454B
:1052400000F00EFC2046294638BD7047024B1B6813
:105250000BB1024818477047D0010020B43A01084A
:10526000B1F90C20B1F90410FCF774BA08B5BFF31A
:105270005F8F1C4BD3F8901011F47C4F04D11A4966
:105280001A483B2200F002FB0022C1F30721C3F8B9
:10529000942010468A421FD11022C3F89C20144A41
:1052A000C3F8A0201322C3F89C20124AC3F8A02000
:1052B0001122C3F89C20104AC3F8A0200F4AC3F85B
:1052C0009C200F4AC3F8A0200722C3F89420BFF304
:1052D0004F8FBFF36F8F08BDC3F89820C3F8A000AD
:1052E0000132D7E700ED00E0D02D0108DF2D0108E5
:1052F00039F00206390702133FF50B131200008044
:1053000039000213102300F007B8202300F004B87E
:10531000302300F001B840239C46F0B404AE75463B
:10532000E80801D3EFF309860E4F0FCE0FC70FBC6D
:105330000FC74046494652465B460FC71DCE310057
:10534000A60A00D304316E0900D248311FC7EFF31B
:1053500009806946EFF3148663C76046014900F08F
:1053600077F800BF28120020F0B52B4E85B000243E
:105370003546214656F8042B2848013400F03EFB00
:105380000D2CF6D1AB6C02936B6C01932B6C244CFF
:105390000093D5E90E23696B224800F02FFB2168AA
:1053A000214800F02BFBE16AA26AA36AA06A266B7F
:1053B000E76B000CCDE901670090C3F307231B489E
:1053C000D2B200F01BFBA36A1E0603D5616B18481E
:1053D00000F014FBA36A180403D5A16B154800F074
:1053E0000DFBEB6C190712D5134800F007FB2B6D72
:1053F000DA070FD5114800F001FBEB6C5B074CBFDF
:105400000F48104805B0BDE8F04000F0F7BA0E486C
:1054100000F0F4FA0D48EEE728120020EC2D010808
:1054200000ED00E0FA2D0108492E0108572E010871
:10543000A62E0108B42E0108C22E0108D12E0108A3
:10544000012F01080D2F0108F12E0108DE2E0108A1
:1054500007B504460D461A48012100F047FA68BB1B
:10546000184800F0CBFA302C19D0402C1CD0202C3E
:105470001FD11548154C00F0C1FA154800F0BEFACE
:10548000FFF772FF134800F0B9FA0D4B00221A70B3
:105490000023114900932A46204600F061FC0F4882
:1054A0000F4C00F0ABFAE8E70E480F4C00F0A6FAFC
:1054B000E3E70E480E4C00F0A1FADEE70024E7E730
:1054C000F5120020192F0108422F01083E01FF802C
:1054D0006F2F01087A2F0108992F0108512F010819
:1054E0003F01FF805A2F01084001FF80652F01080E
:1054F0003D01FF80024B1B6803B11847704700BF96
:105500007C12002010B5044600F094FA204610BD2D
:1055100010B5044600F0A4FA204610BD036870B52B
:105520001B690122002105469847041E0CDB2B68ED
:1055300002221B690021284698472B6821461B69D7
:105540000446002228469847204670BD034B186841
:1055500018B14FF0FF3102F041B9704798170020A1
:10556000024B186808B102F051B970479817002033
:1055700008B5024902488E2200F088F9E62F01089A
:10558000F32F010810B504460846FFF74DFEC4E9A5
:105590000001204610BD000010B50446FFF788FB4F
:1055A00020460A4B40F8203BA169FFF7EBFFD4E906
:1055B0000823C4E90A2300220023C4E90C230023A2
:1055C000C4E90E3384F84030204610BDE83A0108A3
:1055D0004FF0FF30704738B590F83F5004460DB19A
:1055E000FFF7C6FFFFF783FB94F84030A5872BB188
:1055F00084F84050BDE8384000F07EBC38BD000063
:1056000008B50121383000F068F918B1024B4FF0AD
:1056100080625A6008BD00BF00ED00E010B504468E
:10562000FFF765FB002384F83F30024B4FF0007218
:105630005A6010BD00ED00E010B5044601F13000E5
:1056400000F05DF9C4E90001204610BDD0E90C323C
:10565000013342F10002C0E90C32D0E90A3213F5FD
:105660007A7342F10002C0E90A327047D0E90A2396
:1056700012F57A7243F10003FFF730BB08B501233E
:1056800080F83F30836B1BB1034B4FF080625A6050
:10569000FFF7ECFF08BD00BF00ED00E090F83C30E4
:1056A00010B504464BB1002380F83C3090F83E30F2
:1056B00013B9012380F83D3010BD90F83F30002B26
:1056C000FAD0836B01338363044B4FF080625A60DE
:1056D000FFF7BCFF2046FFF7C9FFEDE700ED00E054
:1056E00037B50D46044689696846FFF74BFFD5E993
:1056F0000A3200980199C01A61EB0201B0F57A7F75
:1057000071F1000306D200220023C4E900232046E1
:1057100003B030BDB0F5FA6F71F1000301D2012280
:10572000F2E700294FF47A724FF00003D8BF00214E
:105730000CF046FCC4E90001E9E7000091F83F30B5
:10574000F7B505460C4613B991F83C6026B11249ED
:105750001248E52200F09AF86846FFF7C1FFDDE93C
:1057600000304FF47A71A3FB017201FB0022A663A3
:10577000D4E90A16C91942EB0602C4E90A12D4E9AF
:105780000C125B1842EB00022846C4E90C32C5E952
:10579000003203B0F0BD00BFE62F0108FD2F010865
:1057A0002DE9F3411E4690F83F300446154623B1DB
:1057B00030493148582200F069F890F83C301746DB
:1057C0005BB901466846FFF7B9FF009BAB42019BFE
:1057D000B34105D3012384F83D3002B0BDE8F08128
:1057E00021466846FFF728FF4FF47A73A5FB03585C
:1057F00003FB0688D4E90832ED1848EB020894F858
:1058000040200123DDE90001A3877AB9A26912686B
:1058100092F820203F1A66EB010632BB84F8403034
:1058200000F054FB052F76F100060DD2002384F81A
:105830003E3094F8403023B9012384F8403000F022
:1058400045FB2A4643460AE094F84030002BEDD150
:105850000123B5F57A6284F83E3068F100032046F2
:1058600002B0BDE8F041FFF739BA052F76F1000626
:10587000DCD3EDE7E62F0108F32F010802F02CBF7F
:1058800003F000BA02F014BE02F080BD07B50B466B
:10589000009201460022014800F062FA4401FF80B4
:1058A00003464FF00102D3E84F0FC3E8412FC0B2C7
:1058B0000029F8D17047D0E85F3F5B18C0E8523F3D
:1058C000002AF8D198B27047D0E85F3F5B1AC0E871
:1058D000523F002AF8D198B27047034653E8000FB0
:1058E000401A43E80002002AF8D170470346D3E883
:1058F0004F0FC3E8421FC0B2002AF8D1704738B535
:10590000044600F097F8D4E9004500F0A9F82046D5
:10591000294638BD00B589B000F08CF800211C2262
:1059200001A806F073FA052101A8FFF737FA04244D
:10593000039B019A1A600D4800F062FD049B019AD6
:105940000A481A6000F05CFD013CF1D10424039B7D
:10595000019A1A60064800F053FD049B019A04481E
:105960001A6000F04DFD013CF1D1E0E7F049020082
:10597000801A060073B5002201460446022000F09A
:10598000C3FB0D2600F056F800222378254623B9E4
:1059900002B0BDE8704000F063B80A2B04F10104C6
:1059A00009D10D2A07D001220DF1070102208DF83F
:1059B000076000F0A9FB01222946022000F0A4FBA9
:1059C00014F8012CE1E7000000B5A3B002460B4635
:1059D00001A8842106F0F0F8832806D9064B1A683E
:1059E0001B79CDF883208DF88730002802DD01A8CF
:1059F000FFF7C0FF23B000BD1A3001080FB407B590
:105A000004A951F8040B0191FFF7DEFF03B05DF824
:105A100004EB04B07047EFF31080C04300F00100C6
:105A20007047EFF30580003818BF01207047FFF77B
:105A300091B9000008B5FFF75FF9064A1368591CD1
:105A400004D1054905483F22FFF720FF01331360C9
:105A500008BD00BF801200205C3001086C300108D6
:105A6000044A136823B1013B13600BB9FFF756B921
:105A7000704700BF8012002008B50B48FFF710FFE9
:105A800028B1FFF7D7FFBFF34F8F20BFFDE7FFF728
:105A9000C8FF08B1FFF73EFFFFF7BDFF0028F9D0B0
:105AA000012000F085FC00BFF41200202DE9FF4129
:105AB000484C0E46216801F0C043B3F1C04F0CBF03
:105AC0004D428DB2C1F307438046174642482A46ED
:105AD000FFF794FF6FF498731D44132D0FD8DFE880
