:020000040800F2
:1000000000000A2099030008E9030008F1480008ED
:10001000F7480008FD4800080349000800000000F8
:10002000000000000000000000000000315C00083B
:10003000E903000800000000C95C0008D95C000862
:10004000E9030008E9030008E9030008E9030008E0
:10005000E9030008E9030008E9030008E9030008D0
:10006000E9030008E9030008E9030008FD18000897
:100070000919000815190008211900082D19000890
:100080003919000845190008E90300087507000838
:1000900079060008E903000879070008E903000869
:1000A000E9030008E9030008E9030008E903000880
:1000B000E9030008E9030008E9030008E903000870
:1000C000E9030008E9030008E9030008F91600083D
:1000D00005170008E9030008E9030008E903000820
:1000E000E9030008E9030008E9030008E903000840
:1000F000E9030008E9030008E90300080000000024
:10010000E9030008E9030008E903000811170008E3
:10011000E9030008E9030008E9030008E90300080F
:10012000511900085D1900086919000875190008BF
:1001300081190008E9030008E9030008E903000841
:10014000E9030008E9030008E9030008E9030008DF
:100150008D19000899190008E9030008A50F000887
:10016000E9030008E9030008E9030008E9030008BF
:10017000E10F0008E903000800000000E90300089F
:10018000E9030008E9030008E9030008E90300089F
:10019000E9030008E9030008000000000000000077
:1001A0000000000000000000E9030008E903000867
:1001B000E9030008E9030008E90300080348044BC9
:1001C000834202D0034B03B118477047080C00204C
:1001D000080C0020000000000548064B1B1AD90F30
:1001E00001EBA301491002D0034B03B1184770473C
:1001F000080C0020080C00200000000010B5064C80
:10020000237843B9FFF7DAFF044B13B10448AFF387
:1002100000800123237010BD200C0020000000008E
:100220005431010808B5054B1BB105490548AFF32A
:100230000080BDE80840FFF7CFBF00BF000000000E
:10024000240C002054310108A3F5803A704700BF08
:10025000174B002B08BF134B9D46FFF7F5FF0021FE
:100260008B460F461348144A121A0BF07FF80E4BB8
:10027000002B00D098470D4B002B00D09847002052
:10028000002104000D000D48002802D00C4805F0A4
:1002900087F90BF06FF92000290005F083FC05F0C9
:1002A0007DFB00BF0000080000000000F55A0008B8
:1002B00000000A20200C0020D0300020A1550008AA
:1002C0000000000030B5BDB01422002101A80BF0E1
:1002D0004DF84422002106A80BF048F89422002192
:1002E00017A80BF043F8264B9A6D42F080529A659E
:1002F0009B6D03F0805300930020009B01F098FD5C
:1003000010B100203DB030BD04231090012406A898
:100310000693089401F0C0FE0028F2D11023069342
:10032000B0230E930223CDE90C40CDE910341E22F8
:100330000624052506A8CDE91242CDE914531693EB
:1003400001F0AAFE04460028DBD102F0F1FD4FF4D3
:100350000053179317A84FF04063349302F0C4FB87
:100360000F210323CDE9011301A82946CDE9034458
:10037000059402F03FF9B0FA80F0E840C2E700BF10
:100380000010024008B5FFF79DFF10B9014804F0C6
:10039000AFFF08BD201A0108DFF834D003F0DEF902
:1003A000002103E00B4B5B58435004310A480B4BD0
:1003B00042189A42F6D30A4A02E0002342F8043B6C
:1003C000084B9A42F9D3FFF743FF7047FEE700005E
:1003D00000000A2060310108C0010020080C002044
:1003E000200C0020D0300020FEE7000073B500F0A4
:1003F0007BFF041E33DB1B4E56F8240000282ED052
:100400009023194D6343EB58DA69110609D5DA696F
:10041000120606D51B681B0603D5144B01211B6869
:10042000984790236343EB58DA6991060BD5DA6954
:10043000920608D51B68980605D50C4B56F8240083
:100440001B680021984790235C432B59DA691107F8
:1004500005D5DA69120742BF9B8C9BB2019302B0AB
:1004600070BD00BFA00F0020400C00203C0C0020FD
:100470000148FFF7BBBF00BF008000400148FFF705
:10048000B5BF00BF005000400148FFF7AFBF00BF3D
:10049000004C00400148FFF7A9BF00BF00480040E2
:1004A0000148FFF7A3BF00BF004400400148FFF729
:1004B0009DBF00BF00380140044A4109012300F0FC
:1004C0001F00834042F82130704700BF00E100E088
:1004D0004309064900F01F0020330122824041F801
:1004E0002320BFF34F8FBFF36F8F704700E100E011
:1004F000034B19604168034B43F82120704700BF4C
:100500003C0C0020A00F002030B4D0E900352B486F
:10051000834234D00ED8A0F50060834229D000F584
:100520008060834228D0A0F5006083421ED0002462
:10053000204608E02248834224D000F53840834218
:10054000F5D1204C252090235D431F4B5B59FAB118
:100550001A68D1B942F020021A601C4B00F1100257
:100560009B6843F8224030BCFFF7A6BF184C2620FA
:10057000E9E7184C2720E6E7174C3420E3E7174C4F
:100580003520E0E7164C4620DDE742F08002E3E745
:100590001A6849B922F020021A601B6813F0800F14
:1005A00009D130BCFFF794BF22F080021A601B68AB
:1005B00013F0200FF4E730BC704700BF005000403C
:1005C00000800040AD040008400C002000ED00E079
:1005D000A104000895040008890400087D040008AF
:1005E00071040008F8B54568184E902303FB0563B5
:1005F00007469A68B2F5805F15D11B69002B40F25F
:10060000FF1418BFFF24902303FB0563A3F8604089
:10061000384600F09DFD0028FAD090235D437359C1
:10062000988C2040F8BD2AB91B6993420CBFFF2467
:100630007F24E8E7B2F1805F05D11B69002B0CBF76
:100640007F243F24DFE70024DDE700BF400C0020CB
:1006500070B5456806460C46304600F089FD002816
:10066000FAD090235D43034B5B59C4F308041C8507
:1006700070BD00BF400C0020384B5A69D0072DE9EF
:10068000F0412BD59E6836489968364D9A68364CAD
:1006900006EA0007B04308BF012001EA050108BFD0
:1006A00098602E4BA94208BF4FF4807002EA040202
:1006B00008BF9860A24204BF4FF480309860284B76
:1006C0009F4205D0274B994202D0274B9A4205D131
:1006D000264B274A1B681068012198471F4BD96891
:1006E0005A6989070BD0970709D55A6922F0020287
:1006F0005A611E4B1E4A1B68106800219847174B11
:1007000099695A695B698E0709D5950507D51C0457
:1007100005D5164B164A1B681068052198470F4CE3
:10072000A16962696369480702D46369BDE8F08121
:100730005105FAD51A040AD463691B04F6D50B4B8C
:100740000B4A1B681068BDE8F04102211847084AAF
:10075000064B10681B6807219847EDE700640040CE
:10076000030000040003000800000310B80F00207D
:10077000BC0F0020FFF780BFFFF77EBF30B591FAB6
:10078000A1F391FAA1F1B3FA83F304685B000325A6
:10079000B1FA81F105FA03F3490024EA03038A4020
:1007A0001A43026030BD000010B53F4C8AB00828E3
:1007B00076D8DFE800F005121D28333E495F6A0055
:1007C000E36C43F00103E364E36C03F00103009383
:1007D000009B4FF090400AB010BDE36C334843F0EB
:1007E0000203E364E36C03F002030193019BF2E76D
:1007F000E36C2F4843F00403E364E36C03F0040369
:100800000293029BE7E7E36C2A4843F00803E364A2
:10081000E36C03F008030393039BDCE7E36C2648D7
:1008200043F01003E364E36C03F010030493049BB0
:10083000D1E7E36C214843F02003E364E36C03F069
:1008400020030593059BC6E7A36D43F08053A36582
:10085000A36D03F080530693069B01F041FBE36C0C
:10086000174843F04003E364E36C03F0400307934D
:10087000079BB0E7E36C134843F08003E364E36C49
:1008800003F080030893089BA5E7E36C0E4843F44C
:100890008073E364E36C03F480730993099B9AE724
:1008A0000A4804F025FD00BF001002400004004883
:1008B00000080048000C00480010004800140048E0
:1008C00000180048001C004800200048341A0108A5
:1008D000431C10B504D107490748772204F0CCFA2D
:1008E0004FF4707100F00F0400F090FA0120A04066
:1008F00010BD00BF951A0108A01A01084B1C70B565
:1009000004460E46018218D0C1F30310FFF74CFFD6
:1009100005463046FFF7DCFF238A084A656103F08D
:100920000F03206052F82330A36105F110036360C8
:1009300005F118032835A360E56070BD1C2A010885
:10094000B0F9100000F0F2BA0A46D0E905010AB980
:10095000FFF714BF0122FBE708B500F0F7FE002007
:1009600008BD000038B504F05BFB124B1249134878
:100970005C6A02680B889B1A2344B3F5803F16D348
:100980004FF47A75B3FBF5F205FB123305E0013243
:10099000A3F57A73B3F57A7FF9D20460084C0B8023
:1009A00023681344236004F051FB206838BD002203
:1009B000F0E700BF000C0040C00F0020C80F00206F
:1009C000C40F002000487047142A0108024BD86960
:1009D000DA698242FBD17047007C004008B504F020
:1009E0001FFB074B01221A70064B00221A70064BA0
:1009F0000222C3F808219A60BDE8084004F026BB33
:100A0000DC0F0020DB0F002000E100E010B504F057
:100A100007FB134B1A7842B9124A1268116809078A
:100A2000FCD50821516001221A700F4C23781BB1AC
:100A300004F058FD002323700C4A002313700C4A65
:100A400013700C4B0222C3F88820BFF34F8FBFF303
:100A50006F8FBDE81040C3F8882104F0F7BA00BFDB
:100A6000D80F0020E00F0020D00F0020DB0F002067
:100A7000DC0F002000E100E070B53F4B1C68B8B00F
:100A800024B138B0BDE87040FFF7C0BF0125902207
:100A9000214614A81D600AF069FC4022214603A8E3
:100AA0000AF064FC042302934FF40073139302A82A
:100AB0004FF4402304952C9301F0EEFA10B12F4827
:100AC00004F016FC13A802F00FF808B12C48F7E761
:100AD0002C4B2D4C9A6D42F000429A659A6D02F0B3
:100AE00000420192019A9A6B42F000429A639A6B1B
:100AF00022F000429A63A3F5CA33C4E90100C4E9B5
:100B00000300C4E90800C4E90A00236084F8360041
:100B10004FF48023E06120634FF6FF762046C4E95E
:100B2000056300F0FBFF054608B11848C8E7184BFD
:100B3000184A9B68C3F84421174A136A43F001031B
:100B4000136223689A6842F001029A609A6842F040
:100B500008029A603146204601F03CF823680822DA
:100B60005A605D611A681207FCD508225A600B4B67
:100B700001221A7038B070BDCC0F0020B31A0108E2
:100B8000CC1A010800100240E00F0020ED1A010805
:100B900000ED00E0910C000800040140D80F002097
:100BA00008B504F03DFA064B1B6801225A60054B5C
:100BB0000222C3F88821BDE8084004F047BA00BF0C
:100BC000E00F002000E100E070B5044604F028FAD0
:100BD000FFF7FCFE264B05461C60264A0221916069
:100BE000254E3278F2B9611F4FF6F57291422349D2
:100BF0000FD94FF6FA7290420BD906340122A4B2F3
:100C00000A701C601E4B01221A70BDE8704004F08F
:100C10001DBA00220A701B68AB421A4B28BF012282
:100C20001A70EFE7FFF7BCFF00235A1992B2A242F5
:100C300008BF053403F1010308BFA4B2052BF4D1AA
:100C4000114BAC421B6811D24FF6FA7295420DD887
:100C50004FF6FF725A6100230C4C33702378002B3F
:100C6000D3D104F029FC01232370CEE75C61F2E7C5
:100C7000D40F002000E100E0D80F0020D90F0020A1
:100C8000DB0F0020DA0F0020E00F0020D00F002043
:100C900070B504F0C5F92C4B2C4C1A7832B122688F
:100CA000002119700123536003F076FB23681A6852
:100CB000D50706D59A68D00703D501225A6003F0FC
:100CC0006BFB23681A68110724D59A68120721D58F
:100CD00008225A601E4B1F4C01221A7023781BB148
:100CE00004F000FC002323701B4C237893B11B4DB0
:100CF0001B492B7803F0FF06B3B1FFF767FE0B68C3
:100D0000063080B2984209D3FFF768FE00232B70AB
:100D100000232370BDE8704004F098B908680638D5
:100D200080B2FFF751FFF1E70E4D2B7843B1FFF78B
:100D30004DFE0B68984203D3FFF750FE2E70E7E795
:100D40000868FFF741FFE3E7DC0F0020E00F002019
:100D5000D80F0020D00F0020DB0F0020D90F00207B
:100D6000D40F0020DA0F0020FFF750BE7047704705
:100D700010B50F4CFFF7FBFF02F016FD00F013FE5D
:100D8000D4F890309B0707D401F01AF8D4F89030CB
:100D900023F01803C4F89030FFF7F4FA02F004FDD2
:100DA00000F09CFDFFF7E2FF024B01221A6010BD2C
:100DB000001002401810002030B591FAA1F391FA0A
:100DC000A1F1B3FA83F384685B000325B1FA81F1E2
:100DD00005FA03F3490024EA03038A401A438260B8
:100DE00030BD30B591FAA1F391FAA1F1B3FA83F3D2
:100DF000C4685B000325B1FA81F105FA03F34900E9
:100E000024EA03038A401A43C26030BDB0F1FF3FB9
:100E10002DE9F84380460E467FD000F00F02404B8C
:100E2000C0F3031053F82250C1F3831901F00707F0
:100E3000FFF7BAFCB9F10F0F0CBF03224A4629464F
:100E40000446FFF7B9FF032F5ED8DFE807F06264BE
:100E50002C02032395FAA5F2B2FA82F2216852001D
:100E6000032000FA02F221EA020195FAA5F2B2FA91
:100E700082F252009340013F0B43012F236005D8BB
:100E8000636832074CBF2B43AB436360C6F3011268
:100E9000012A02D0022A18BF002229462046BDE8B6
:100EA000F843FFF79EBF18F0080FC6F3832217D050
:100EB0002B0A93FAA3F1B1FA81F1406A93FAA3F3F2
:100EC00089004FF00F0CB3FA83F30CFA01F19B0089
:100ED00020EA010102FA03F30B4363620223B9E73C
:100EE00095FAA5F3B3FA83F3016A9B000F2000FA89
:100EF00003F321EA030195FAA5F3B3FA83F39B0008
:100F00009A400A432262E9E706490748D52203F0DE
:100F1000B3FF00239EE701239CE7BDE8F88300BFF1
:100F20001C2A0108431B0108BD240108431C70B59D
:100F30000D4634D000F00F02194BC0F3031053F8E4
:100F40002240FFF731FC94FAA4F194FAA4F2066867
:100F5000B1FA81F18AB149000323B2FA82F28B40DF
:100F600033405200D340013B012B06D8EB1E022B2D
:100F7000436894BF2343A3434360013D042D0CD831
:100F8000DFE805F00309030B090001222146BDE853
:100F90007040FFF726BF0222F8E70022F6E770BD97
:100FA0001C2A0108014B186800F062BE20100020C6
:100FB000D0E90532012A0CBFD86E986F05F092BFB8
:100FC000FFF7F6BF4FF400734364D0E90532012AFE
:100FD0000CBFD86E986F05F085BFFFF7F3BF000018
:100FE000014B186800F044BE1C1000200FB407B578
:100FF000064B04AA1B6852F8041BD868019209F03A
:10100000E7FB03B05DF804EB04B07047F009002083
:101010000368474A934210B504461ED102F5584270
:10102000116C41F480411164116C21F48041116410
:10103000116E21F4804111663E4A93421DD13E4B10
:10104000DA6B42F00102DA63DA6B22F00102DA6352
:10105000DA6D22F00102DA650FE0384A934236D1A8
:10106000354B9A6B42F400329A639A6B22F4003249
:101070009A639A6D22F400329A65B4F9180040F22E
:10108000C331FFF7C3FEB4F91A0040F2C331FFF7D2
:10109000BDFE236A23F40073B3F5807F05D1B4F954
:1010A000240040F2C331FFF7B1FE236A23F48073BA
:1010B000B3F5007F05D1B4F9260040F2C331FFF744
:1010C000A5FE62681E4B002143F8221010BD1D4A88
:1010D00093420CD1184B9A6B42F480229A639A6B1C
:1010E00022F480229A639A6D22F48022C4E7164A81
:1010F00093420CD1104B9A6B42F400229A639A6B84
:1011000022F400229A639A6D22F40022B4E70F4A77
:10111000934291D1084B9A6B42F480129A639A6B76
:1011200022F480129A639A6D22F48012A4E700BF21
:1011300000380140008000400010024000440040A0
:10114000A00F002000480040004C0040005000402C
:10115000436890225343054AD358DA69120744BFC3
:1011600008221A62D869C0F340107047400C002072
:10117000436890225343034AD358D869C0F3C01040
:10118000704700BF400C0020F8B54668234A056848
:101190008168902373439C18D5506160C368A36035
:1011A0000369E36043692361036AA361B1F5965F54
:1011B0004FF0000328BF1F46A4F8563038BF07275A
:1011C000A4F85430A4F85E30A4F85C30C4E9097384
:1011D000E36123626366B0F91A30013318D0B0F9C5
:1011E0001830581C0CBF04230C23902000FB06224F
:1011F00053610B4B9D4206D142F6AA2399422046E9
:1012000008D802F08AFA2046BDE8F84002F055BA44
:101210000823EAE702F091FAF5E700BF400C00204E
:101220000080004070B502682B4B9A42B6B004466D
:101230000D46816022D19022002112A80AF096F872
:101240002023119342F6AA239D4222DD002311A8F8
:10125000259301F049FC2046FFF796FF002839D07E
:101260004FF4806311A8259301F03EFC2046FFF760
:101270008BFF78B319482946FFF7B8FE2046FFF7E1
:1012800083FF38B31648294636B0BDE87040FFF7F3
:10129000ADBE144ED6F8901011F002010BD14022D1
:1012A00001A80AF063F8042300936846012302931F
:1012B0000A9300F0F1FED6F890309B07C6D54FF4A4
:1012C000406311A8259301F00FFC2046FFF75CFF57
:1012D0000028BBD136B070BD008000404C1B010817
:1012E000971B010800100240124B984217D0A3F53B
:1012F0007443984215D003F58063984213D003F5E8
:101300008063984211D003F5806398420FD003F5B3
:10131000405398420CBF05204FF0FF30704700202B
:101320007047012070470220704703207047042057
:10133000704700BF003801402DE9F0470F4686B0E6
:10134000614904463846164603F052F85F49804624
:10135000304603F04DF80146404603F027F85A495D
:101360000546384603F05AF858498246304603F09D
:1013700055F8162F81460AD0172E08D0524916204C
:1013800003F036F840450CD1514803F0B1FF4FF05F
:101390000108691C256007D14E494F48412203F0DE
:1013A0006BFD4FF00008F4E74C4B9D4219D103F55B
:1013B00058431A6E42F480421A661B6E03F480434F
:1013C0000093009B464B9D4219D103F5C833DA6D5B
:1013D00042F00102DA65DB6D03F001030593059B22
:1013E0000DE0404B9D4214D103F5E6339A6D42F473
:1013F00000329A659B6D03F400330193019B2846EC
:10140000FFF772FF6060013030D132493648A022C8
:10141000C5E7364B9D420BD103F5E4339A6D42F498
:1014200080229A659B6D03F480230293029BE6E77A
:101430002F4B9D420BD103F5E2339A6D42F400220B
:101440009A659B6D03F400230393039BD7E7294B15
:101450009D42B7D103F5E0339A6D42F480129A654C
:101460009B6D03F480130493049BC8E751463846F0
:10147000FFF7CCFC01213846FFF758FD49463046BE
:10148000FFF7C4FC30460121FFF750FD00234FF465
:10149000E132C4E90223C4E904332362278366836B
:1014A0002046FFF771FEB8F1000F0AD0124B134827
:1014B00001221A6021464C2206B0BDE8F0470AF02E
:1014C000E7B806B0BDE8F0876C190108AC18010850
:1014D000C11B0108361C0108431C010800380140EB
:1014E00000800040004400405F1C010800480040AC
:1014F000004C0040005000407010002024100020DC
:101500001E4B186810F0010018BFD8691C4B1A68F0
:101510001CBFC0F3801080F00100D20741BFDB691F
:10152000C3F3801383F001031843164B1A68D107E5
:1015300041BFDB69C3F3801383F001031843124BEF
:101540001A68D20741BFDB69C3F3801383F001033C
:1015500018430E4B1A68D10741BFDB69C3F38013F0
:1015600083F0010318430A4B1A68D20741BFDB69B5
:10157000C3F3801383F00103184370470038014020
:101580000044004000480040004C00400050004033
:1015900000800040034A516A536A5B1A8342FBD3BE
:1015A000704700BF000C004010B5002486B0142224
:1015B000214601A8009409F0D9FE694601A801F06E
:1015C0008FF90F230099019301A8CDE902440594F6
:1015D000049401F00FF810B1024803F089FE06B040
:1015E00010BD00BF711C010800B593B0002144225A
:1015F00001A809F0BBFE0F4B9A6D42F080529A652C
:101600009B6D03F08053009301A8009B01F00EF93D
:101610001023019301210023B02201A8CDE9071373
:1016200009920B9300F038FD10B1034803F060FEFF
:1016300013B000BD00100240991C010808B503F06A
:10164000EFFC074B186810F480404FF0010118BF01
:101650004FF4804000F0BCFBBDE8084003F0F6BC4E
:101660000070004073B5FFF74BFF00283BD11F4CC3
:1016700003F0D6FC00F002F91D4AA56D166815F0BE
:10168000805506F4804608D1A36D43F08053A365CE
:10169000A36D03F080530193019B0EB100F038FC61
:1016A00000F026FC012000F053FC0EB100F028FCF5
:1016B0001DB9A36D23F08053A3650E4C0023236056
:1016C000FFF792FFFFF770FFFEF75CFE4FF4FA7032
:1016D000FFF760FF00F0EAF80123236002B0BDE8E5
:1016E000704003F0B3BC02B070BD00BF00100240F8
:1016F0000070004018100020014B186801F022BC57
:101700007C100020014B186801F01CBC78100020F0
:10171000014B186801F016BC74100020074B084AF2
:1017200013601A69910707D5DA68920704D56FF03C
:1017300002021A6103F080B8704700BF000C00403D
:101740008C100020004870475C2A010830B589B031
:1017500001A903A801F0C4F801F044F8204B01905E
:101760009A6D204C42F008029A659A6D02F00802C8
:101770000292029A9A6B42F008029A639A6B22F0E4
:1017800008029A63069AA3F5013323604FF0FF33F2
:10179000E360154BFAB9B0FBF3F3581E0025606007
:1017A00010482561C4E90555A56001F0BFFC0F4B49
:1017B0000F4A9B68C3F808210E4B4FF480225A60F1
:1017C0000848294601F0F0FC2268D36823F00203A0
:1017D000D36009B030BD4000B0FBF3F00138DDE765
:1017E000001002408C10002040420F0000ED00E08D
:1017F0001D17000800E100E004480268D36823F0E8
:101800000203D360002101F0CFBC00BF8C10002088
:10181000014B586A704700BF000C0040054B1B6825
:101820006FF0020258631A61DA6842F00202DA606D
:10183000704700BF8C100020064B1B686FF002023F
:101840001A615A6942F002025A61DA6842F00202F1
:10185000DA6070478C100020034B1A68D36823F0BD
:101860000203D360704700BF8C100020024B1B683E
:101870006FF002021A6170478C100020064B074A75
:101880001B68596A11605A6B054B1A60054BDA6880
:10189000054B1A60704700BF8C1000208810002094
:1018A00084100020000C004080100020064B074AE6
:1018B0001B6812685A62064A12685A63054B1A6816
:1018C000054BDA60704700BF8C10002088100020A4
:1018D0008410002080100020000C00401FB5054B34
:1018E0000FCB8DE80F00684605F056FA024B1860E2
:1018F00005B000BD642A010864110020014B58683E
:1019000000F0A7B8D8100020014BD86800F0A1B8AB
:10191000D8100020014B586900F09BB8D810002067
:10192000014BD86900F095B8D8100020014B586AD7
:1019300000F08FB8D8100020014BD86A00F089B8A9
:10194000D8100020014B586B00F083B8D81000204D
:10195000014BD86B00F07DB8D8100020014B586CBB
:1019600000F077B8D8100020014BD86C00F071B8A7
:10197000D8100020014B586D00F06BB8D810002033
:10198000014BD86D00F065B8D8100020014B586E9F
:1019900000F05FB8D8100020014BD86E00F059B8A5
:1019A000D8100020704710B5032000F00BF80F206E
:1019B000FEF7D2FF044618B9FFF7F4FF204610BD2A
:1019C0000124FBE70749CA6822F4E062030212041B
:1019D00003F4E063120C134343F0BF6343F400339A
:1019E000CB60704700ED00E008B590F82530022B81
:1019F00003D00423C363012008BD03681A6822F0E2
:101A00000E021A601A6822F001021A60826C1368D2
:101A100023F480731360D0E9101303F01C02012338
:101A200093404B60D0E913325A60436D33B11A686A
:101A300022F480721A60D0E916325A60012380F8CD
:101A40002530002380F82430836B03B198470020B1
:101A5000D2E7016C426C036870B402F01C020E689D
:101A60001D680424944034420ED015F0040F0BD0AE
:101A70001A6892065EBF1A6822F004021A60036BAD
:101A80004C6073B370BC184702249440344212D0A7
:101A900015F0020F0FD01A68950606D41A6822F0C6
:101AA0000A021A60012380F8253000234C6080F878
:101AB0002430C36AE5E708249440344211D02C074F
:101AC0000FD51C6824F00E041C60012303FA02F2F7
:101AD0004A60C36380F82530002380F82430436BCC
:101AE000CFE770BC704700000A4B44F620621B68C9
:101AF000B3FBF2F34FF47A7210B55343046800203D
:101B00002268013B08BF032031EA020201D0002B0A
:101B1000F6D110BDC801002070470000F8B504469A
:101B2000002850D090F8363003F0FF021BB980F83F
:101B30003520FFF7F1FF60682168A56A022384F869
:101B400036300128CB6802D0B5F5000F01D123F063
:101B50001E0323F46046626926F0C0064FF6FF7745
:101B6000BA4218BF3346194FA6681F4040EA050322
:101B70003343266A3343666A33433B43E0B9E06943
:101B8000266930430343B5F5000F17D04FF6FF70B9
:101B9000824204D0A0690243E069024313430C4A25
:101BA000CB609142E36A04BF226B13430B620123B3
:101BB00084F836300020F8BD0128E4D1D4E90305CB
:101BC00028430343E2E70120F5E700BFFEF119FFD8
:101BD000007C0040022238B580F83620D0E900525F
:101BE000012A04460B4607D0826AB2F5000F02BFF5
:101BF000EA6822F46062EA602A69102142F0010278
:101C00002A6120466960AB61FFF76EFF032807D0A9
:101C10002B6943F004032B61012384F83630002044
:101C200038BD7047806A08B50023C363436CB3F5C1
:101C3000807F14D103681A6A12F0200F4FF002025D
:101C400009D05A621A6842F400321A601A6842F0E7
:101C500002021A6008BD4264FFF7E3FFFAE70223BD
:101C60004364FFF7AFF9F5E770477047704700002E
:101C700038B503681A6A044655071868616C1FD5A1
:101C800045031DD5182914D1626B127883F85020B2
:101C9000636B01336363E36B013BE363E36B23B982
:101CA0002268136823F4802313602046FFF7DCFFCB
:101CB00038BD2829F2D1626B93F850301370E7E7F2
:101CC00095073ED585033CD528291DD1E16B69B127
:101CD00012F47C5F0AD0626B93F850301370636B20
:101CE00001336363E36B013BE363E1E7E26B002AEB
:101CF000DED1022159621A6822F4E0221A602046DD
:101D00006164FFF755F9D3E7022058621A68182971
:101D100022F4E0221A60606403D12046FFF750F9F4
:101D2000C6E7082903D12046FFF79FFFC0E7B1F5BA
:101D3000807FBDD1A36C2046002B31D1FFF771FF0E
:101D4000B6E7110710D505030ED508225A621A68A6
:101D5000500205D51A6822F410221A600223636427
:101D60002046FFF783FFA3E7D1071CD5C5031AD58B
:101D700001225A621A68022522F4F8121A60A56438
:101D80001A6850070AD51A68206C22F004021A60FB
:101D90000A4B8363FFF728FE002889D0656420463C
:101DA000FFF710F984E7D10682D5C20280D5102250
:101DB0005A622046FFF711F97AE700BF251C000898
:101DC000024A136843F48073136070470070004048
:101DD0000D4B10B55B690C4628B99A0507D500F084
:101DE00097F820B110BD9B0501D400F089F8074A8F
:101DF0001369012C23F00403136101D130BFF1E713
:101E000040BF20BF20BFEDE70070004000ED00E0C4
:101E1000064B186800F4C060B0F5806F1EBFD3F8A1
:101E20008000C0F300204002704700BF00700040F7
:101E3000284B1A6818BB02F4C062B2F5806FD3F861
:101E4000802022F48072C3F8802040D11A6822F4E6
:101E5000C06242F400721A601F4A126832214A437B
:101E60001E49B2FBF1F201325969490500D522B988
:101E70005B6958052BD503207047013AF4E7B0F5AC
:101E8000007F1FD102F4C062B2F5806FD3F88020CA
:101E900042F48072C3F8802019D11A6822F4C0621B
:101EA00042F400721A600C4A126832214A430B490C
:101EB000B2FBF1F2013259694905D9D5002AD7D0D0
:101EC000013AF8E722F4C06242F480621A6000200E
:101ED000704700BF00700040C801002040420F0062
:101EE000024A536843F40073536070470070004027
:101EF000024A136843F010031360704700700040FB
:101F0000024A136843F48043136070470070004036
:101F10000C4A136823F4804313600B4B1B68322177
:101F20004B430A49B3FBF1F301335169890500D5ED
:101F300033B9536913F4007F14BF032000207047A6
:101F4000013BF2E700700040C801002040420F0052
:101F50000B4A136823F0070343F002031360094B95
:101F60001A69012842F004021A6105D130BF1A69CA
:101F700022F004021A61704740BF20BF20BFF6E77D
:101F80000070004000ED00E037B51C4DAB6DDA008D
:101F9000044618D5FFF73CFFB0F5007F23D1802C15
:101FA00028D9A02C8CBF0224012415490A6822F0EC
:101FB0000F0222430A60086800F00F00001B18BFE0
:101FC000012003B030BDAB6D43F08053AB65AB6D0A
:101FD00003F080530193019BFFF71AFFAB6D23F0D1
:101FE0008053AB65D8E77F2C06D8A4F170035C4220
:101FF0005C41DAE70024D8E70224D6E7001002406B
:1020000000200240204B9A68D96812F00C0205D0DB
:102010000C2A2CD101F0030101292FD119681B488A
:10202000090755BFD3F894101968C1F30321C1F310
:10203000031150F8210032B3DA6802F00302022AD9
:102040001ED01349032A08BF0846D968DA68C2F3CC
:1020500006224243D868C0F34160C1F30311013046
:1020600001314000B2FBF1F2B2FBF0F07047042AFC
:1020700008D0082A064818BF002070470020DBE778
:102080000448E2E703487047001002408C2A010828
:1020900000127A000024F4002DE9F74305460028D9
:1020A00060D0954C0368A668E768DB0606F00C066E
:1020B00007F0030776D51EB10C2E55D1012F53D151
:1020C0002368980702D5AB69002B4BD02368286A98
:1020D000190756BFD4F8943023681B0903F0F003A6
:1020E000984229D9FFF750FF00283BD1236843F0DD
:1020F0000803236023682A6A23F0F0031343236054
:102100006368EA6923F47F4343EA02236360FFF7CD
:1021100079FFA368794AC3F30313D35C03F01F0369
:10212000D840774B1860774B1868FEF715FC0028ED
:1021300038D003B0BDE8F083236843F00803236080
:10214000236823F0F003034323606368EA6923F400
:102150007F4343EA02236360002ED8D1FFF714FFC8
:102160000028D4D00120E4E7AB69002B3AD02368E3
:1021700043F001032360FEF7F5FB804623689A07CE
:1021800028D5236843F00803236023682A6A23F0D4
:10219000F003134323606368EA6923F47F4343EA4F
:1021A000022363602B68D8072DD42B6899076BD462
:1021B0002B68180700F1A8802B68590700F1CE8022
:1021C0002B689F0600F13781AB6A002B40F05D81E0
:1021D0000020AEE7FEF7C6FBA0EB08000228CDD931
:1021E0000320A6E7236823F001032360FEF7BAFB70
:1021F000804623689B07D5D5FEF7B4FBA0EB08000B
:102200000228F6D9ECE7082E03D00C2E08D1032FB4
:1022100006D123689A03C8D56B68002BC5D1A1E706
:102220006B68B3F5803F10D1236843F4803323609B
:10223000FEF798FB804623689B03B6D4FEF792FB1B
:10224000A0EB08006428F6D9CAE7B3F5A02F04D1A3
:10225000236843F480232360E6E7226822F4803277
:102260002260226822F480222260002BE0D1FEF757
:1022700079FB80462368980397D5FEF773FBA0EBA4
:1022800008006428F6D9ABE7042E03D00C2E10D139
:10229000022F0ED12368590503D5EB68002B3FF4BC
:1022A00061AF63682A6923F0FE4343EA0263636017
:1022B0007EE7EB687BB1236843F480732360FEF70D
:1022C00051FB074623685A05EBD4FEF74BFBC01BB6
:1022D0000228F7D984E7236823F480732360FEF78C
:1022E00041FB074623685B057FF562AFFEF73AFBCB
:1022F000C01B0228F6D973E700100240C42A010867
:10230000C8010020C40100206B699BB1D4F894304F
:1023100043F00103C4F89430FEF724FB0746D4F8D9
:1023200094309A073FF548AFFEF71CFBC01B02280C
:10233000F5D955E7D4F8943023F00103C4F894306C
:10234000FEF710FB0746D4F894309B077FF534AFB7
:10235000FEF708FBC01B0228F5D941E7A36DDF009B
:1023600029D4A36D43F08053A365A36D03F080537C
:102370000193019B4FF001089C4F3B68D8051DD588
:10238000AB68012B2BD1D4F8903043F00103C4F893
:102390009030FEF7E7FA41F288390746D4F89030DA
:1023A0009A0742D5B8F1000F3FF40AAFA36D23F0AE
:1023B0008053A36504E74FF00008DDE73B6843F472
:1023C00080733B60FEF7CEFA81463B68D905D7D4CF
:1023D000FEF7C8FAA0EB09000228F6D900E7052BA2
:1023E00006D1D4F8903043F00403C4F89030CAE723
:1023F000D4F8902022F00102C4F89020D4F8902064
:1024000022F00402C4F89020002BC2D1FEF7AAFAF1
:1024100041F288390746D4F890309B07C2D5FEF7C1
:10242000A1FAC01B4845F6D9DAE6FEF79BFAC01BB5
:102430004845B3D9D4E66B6A9BB1D4F8983043F0E1
:102440000103C4F89830FEF78DFA0746D4F89830A7
:1024500098073FF5B9AEFEF785FAC01B0228F5D9FB
:10246000BEE6D4F8983023F00103C4F89830FEF7A4
:1024700079FA0746D4F8983099077FF5A5AEFEF7AC
:1024800071FAC01B0228F5D9AAE6022B40F08C8015
:10249000E368EA6A03F00301914222D1296B03F059
:1024A000F0020139B2EB011F1BD1696B03F4FE424C
:1024B000B2EB012F15D1A96B03F07842B2EBC16FDB
:1024C0000FD1EA6B520803F4C001013AB1EB425F4D
:1024D00007D12A6C520803F0C063013AB3EB426F94
:1024E00049D00C2E3FF43EAE23685A013FF53AAE78
:1024F0002368DB003FF536AE236823F0807323604A
:10250000FEF730FA064623689F012ED4E268384B66
:102510001340EA6A13436A6B43EA0223AA6B43EA55
:10252000C2632A6B013A43EA0213EA6B5208013A8A
:1025300043EA42532A6C5208013A43EA4263E36099
:10254000236843F080732360E36843F08073E360A3
:10255000FEF708FA0546236898013FF539AEFEF705
:1025600001FA401B0228F6D93AE6FEF7FBF9801B78
:102570000228C8D934E6236899013FF529AE2368BB
:1025800043F080732360E36843F08073E360FEF7F9
:10259000E9F9054623689A013FF51AAEFEF7E2F91C
:1025A000401B0228F6D91BE60C2E3FF4DBAD236856
:1025B00023F080732360236813F0205F02BFE36879
:1025C00023F00303E360E36823F0887323F480338C
:1025D000E360FEF7C7F9054623689B017FF5F8AD78
:1025E000FEF7C0F9401B0228F6D9F9E5007000405B
:1025F0000C809D012DE9F84305460E4610B90120D7
:10260000BDE8F8836E4A136803F00F038B4235D39D
:10261000296811F001083CD129688A0740F1B4808B
:10262000684AA868936823F0F00303439360644A00
:10263000136803F00F03B34200F2AF8011F0040FF0
:10264000604C40F0B6800B0706D5A3682A6923F4D6
:10265000605343EAC203A360FFF7D4FCA3685A4A5D
:10266000C3F30313D35C03F01F03D840574B186028
:10267000574B1868BDE8F843FEF76EB9136823F0AE
:102680000F030B431360136803F00F038B42B6D1A3
:10269000BEE76F684B4C032F236862D19B01AED518
:1026A000E36803F00303012B44D12368494A180768
:1026B00055BFD4F894302368C3F30323C3F3031343
:1026C00052F82320E36803F00303022B34D042487E
:1026D000032B08BF0246E068E368C3F306235343B5
:1026E000E268C2F34162C0F30310013252000130CC
:1026F000B3FBF0F3B3FBF2F3384A93421ED84FF02A
:102700000008A36823F003033B43A360FEF72AF904
:1027100041F288390746A3686A6803F00C03B3EBFB
:10272000820F3FF479AFFEF71DF9C01B4845F2D97F
:10273000032065E70022C5E7294ACCE7A36813F028
:10274000F00F08D1A36823F0F00343F08003A360E7
:102750004FF08008D5E78907D1D5AB68002BCED1E3
:10276000F0E7022F09D113F4003F3FF448AFFFF721
:1027700049FC1A4B9842C2D9E4E717B913F0020F8B
:10278000F3E713F4806FF0E7B8F1800F7FF44FAFF9
:102790000C4A936823F0F00348E7136823F00F0313
:1027A00033431360136803F00F03B3427FF427AF82
:1027B00044E7A368EA6823F4E0631343A36042E7B5
:1027C0000020024000100240C42A0108C801002075
:1027D000C40100208C2A010800127A0000B4C4044D
:1027E0000024F400054B064A9B68C3F30223D35C24
:1027F000044A106803F01F03D840704700100240DD
:10280000BC2A0108C8010020054B064A9B68C3F397
:10281000C223D35C044A106803F01F03D8407047FA
:1028200000100240BC2A0108C80100203F230360B9
:102830002A4B1A68510356BF1A684FF4A02202F4BB
:10284000803242601A6802F0010282615A68C2F363
:102850000722C2611A6802F0F00202621A6802F4EA
:102860008072C2605A68C2F306620261D3F8902097
:10287000520756BFD3F89020052202F00102826071
:10288000D3F8942002F001024261D3F8982002F0BC
:10289000010242621A6812F0807F0CBF01220222FC
:1028A0008262DA6802F00302C262DA68C2F30312DB
:1028B00001320263DA68C2F306224263DA68C2F3C5
:1028C000415201325200C263DA68C2F341620132FE
:1028D00052000264DB68DB0E836370470010024025
:1028E0000F2303600B4B9A6802F0030242609A6860
:1028F00002F0F00282609A6802F4E062C2609B68B3
:10290000DB0803F4E0630361034B1B6803F00F0370
:102910000B6070470010024000200240F8B53C4CAC
:10292000E3689B0705460E46006822D0E36803F083
:102930000303834230D17BB3236823F08063236099
:10294000FEF710F8074623681A012ED46968AA68B2
:102950000139120286B3012E266947D12B695B0823
:10296000581E2C4B3340134343EA011343EA4053B0
:102970002BE002280CD0032810D001280CD12368AA
:102980009F0718D5E36823F003030343E360D3E70D
:10299000236813F4806FF5D101200CE023689903BC
:1029A000F0D4236813F4802FF5E7FDF7DBFFC01B9D
:1029B0000228C8D90320F8BDEB68206942EAC36346
:1029C000154A0240134343EA01132361236843F08D
:1029D00080632360FDF7C6FF064623681B0110D500
:1029E0002369AA69134323610020E4E76B695B084C
:1029F000581E0A4B3340134343EA011343EA406332
:102A0000E3E7FDF7AFFF801B0228E6D9D2E700BF5E
:102A1000001002400F809FFF0F80FF070F80FFF91B
:102A200070B52F4CE3689B070546006826D0E36825
:102A300003F00303834234D1002B32D0236823F008
:102A400080532360FDF78EFF064623689A0031D439
:102A5000D5E90223DB06616943EA0223214A0A40E1
:102A600013436A68013A43EA02136361236843F03F
:102A700080532360FDF776FF064627E002280CD03E
:102A8000032810D001280CD123689E0718D5E368CD
:102A900023F003030343E360D0E7236813F4806F5C
:102AA000F5D101200CE023689903F0D4236813F4D6
:102AB000802FF5E7FDF756FF801B0228C5D90320BC
:102AC00070BDFDF74FFF801B0228F8D823689B00DC
:102AD000F7D56369AA69134363610020F0E700BF7B
:102AE000001002400F80FF0703681B052DE9F34724
:102AF000044627D5C16E402926D016D851B32029C7
:102B00002FD001252368DF040DD5216FB1F5007F9B
:102B100000F080812CD8002900F08281B1F5807FFF
:102B200000F0838101252F4635E0602901D08029FE
:102B3000E7D10E4AE16ED2F89C3023F0E0030B435C
:102B4000C2F89C300025DDE7084AD36843F480339F
:102B5000D360EEE70430FFF7E1FE05460028D1D14F
:102B6000E7E72030FFF75CFFF7E700BF0010024007
:102B7000B1F5407F02D0B1F5806FD3D12F46002F41
:102B800040F05881B24A216FD2F89C3023F4E063C0
:102B90000B43C2F89C3023689E0338D5AC4EB36D0E
:102BA000D80000F14981B36D43F08053B365B36D34
:102BB00003F080530193019B4FF00108DFF89492DA
:102BC000D9F8003043F48073C9F80030FDF7CAFE2D
:102BD0008246D9F80030D90540F131817FB9D6F865
:102BE000903013F4407340F03781D6F89030D4F829
:102BF000902023F440731343C6F890302F46B8F169
:102C0000000F03D0B36D23F08053B3653D462368B6
:102C1000DE0708D58E49E06BD1F8882022F0030248
:102C20000243C1F88820980708D58949206CD1F85B
:102C3000882022F00C020243C1F88820590708D5E9
:102C40008349606CD1F8882022F030020243C1F839
:102C500088201A0708D57E49A06CD1F8882022F078
:102C6000C0020243C1F88820DF0608D57849E06C2D
:102C7000D1F8882022F440720243C1F888209E06D1
:102C800008D57349206DD1F8882022F440620243B0
:102C9000C1F88820980508D56D49606ED1F8882064
:102CA00022F440220243C1F88820590508D568491A
:102CB000A06ED1F8882022F440120243C1F8882087
:102CC0005A0608D56249606DD1F8882022F4405236
:102CD0000243C1F888201F0608D55D49A06DD1F8D0
:102CE000882022F440420243C1F88820DE0508D53E
:102CF0005749E06DD1F8882022F440320243C1F8F0
:102D00008820D80208D55249206ED1F89C2022F0A4
:102D100003020243C1F89C20990410D54C4A616F0C
:102D2000D2F8883023F040630B43B1F1006FC2F852
:102D3000883040F0BB80D36843F48013D3602E46C4
:102D400023681A030FD5A16F414BB1F5804FD3F81B
:102D50009C2040F0B88042F48042C3F89C20DA689E
:102D600042F48032DA60374623685B0310D5384A74
:102D7000E16FD2F8883023F040630B43B1F1006F6C
:102D8000C2F8883040F0B180D36843F48013D36038
:102D90003D4623685E040DD52D49D4F88020D1F836
:102DA000883023F040531343B2F1805FC1F888307C
:102DB00000F0A88028462268D50309D52449D4F814
:102DC0008450D1F89C3023F004032B43C1F89C308D
:102DD000910209D51E49D4F88850D1F89C3023F0CF
:102DE00018032B43C1F89C30D30110D5184AD4F8EE
:102DF0008C10D2F89C3023F440130B43B1F5001F24
:102E0000C2F89C3003D1D36843F48013D36002B07E
:102E1000BDE8F0870E4AD36843F48033D360ADE653
:102E2000201DFFF77BFD0746A9E604F12000FFF710
:102E3000F7FDF8E73D46AEE64FF00008BEE6FDF7C9
:102E400091FDA0EB0A0002287FF6C3AE0327D6E669
:102E50000010024000700040D4F8902093423FF4EC
:102E6000C4AED6F89020D6F8903043F48033C6F83C
:102E70009030D6F8903022F4407123F48033D2079A
:102E8000C6F89030C6F890107FF5AFAEFDF76AFD3A
:102E900041F288390746D6F890309B073FF5A5AE3A
:102EA000FDF760FDC01B4845F5D9CFE7B1F1806F54
:102EB0007FF445AF0121201DFFF730FD06460028B5
:102EC0003FF43DAF3CE722F48042C3F89C20D3F8A6
:102ED000882022F040620A43B1F1006FC3F88820D5
:102EE00018D1DA6842F480123CE7B1F1806F7FF4C8
:102EF0004FAF0121201DFFF711FD054600283FF4CB
:102F000047AF46E70221201DFFF708FD00283FF4E8
:102F100051AF50E7B1F1806F7FF425AF0121201D43
:102F2000FFF7FCFC074600283FF41DAF1CE700BF7D
:102F3000024A136843F00403136070470010024014
:102F400070470000F0B503685D689A68560685B062
:102F500004464FEA9211C2F3801708D4D60706D56B
:102F60006E0604D5C36C05B0BDE8F040184796075F
:102F700004D5280602D5236D2046F4E741EA521114
:102F800002F4807001F0010101434FEA521657D05C
:102F9000AA0655D57FB194F85D20032A4FF00001B1
:102FA00048D0226E42F0040222660091DA68009254
:102FB0009A680092009AF1070CD5226E42F0010245
:102FC0002266002202929A6802921A6822F0400257
:102FD0001A60029A40B1226E42F008022266002274
:102FE00003929A680392039A226E4AB35A6822F0B7
:102FF000E0025A60012284F85D20AA0722D05A68B4
:10300000A06D22F003025A6040B1104B8363FEF7BB
:10301000EBFC18B1236E43F040032366606D78B17A
:103020000A4B8363FEF7E0FC50B1236E43F040038C
:10303000236605E00191DA6801929B680193019B88
:1030400005B0F0BD2046FFF77BFFF9E751300008DF
:1030500008B5806A0023A0F84630C387FFF770FFE9
:1030600008BD70472F4A0368904212D0B0F1804FDC
:103070000FD0A2F5943290420BD002F580629042BC
:1030800007D002F58062904203D002F5943290425C
:103090003ED14A6823F070031343224A904212D073
:1030A000B0F1804F0FD0A2F5943290420BD002F5D0
:1030B0008062904207D002F58062904203D002F510
:1030C0009432904203D1CA6823F4407313434A698F
:1030D00023F08003134303608B68C3620B68836231
:1030E000104B98420FD003F5006398420BD003F5C4
:1030F0004063984207D003F58063984203D003F5FC
:103100008063984201D10B690363012343617047D7
:10311000054A9042D7D002F580629042D3D002F5A2
:103120008062CEE7002C01400040014010B504460B
:1031300050B390F83D3003F0FF021BB980F83C20FB
:10314000FFF78FFF0223206884F83D30211DFFF731
:1031500089FF012384F84830002084F83E3084F849
:103160003F3084F8403084F8413084F8423084F8AD
:10317000433084F8443084F8453084F8463084F88D
:10318000473084F83D3010BD0120FCE7036A10B5DC
:1031900001F01F0101248C4023EA04030362036A47
:1031A0008A401A43026210BD082908B51BD005D811
:1031B00059B104290FD090F8433016E00C2923D0E0
:1031C0001029F8D190F842300FE090F83E30012BF2
:1031D00022D0012043E090F83F30012BF9D10223A7
:1031E00080F83F301BE090F84030013B18BF0123CE
:1031F000002BEED10C294FF0020334D007D8082958
:103200002ED080F843300AE090F84130EDE71029E5
:10321000F7D180F8423002E0022380F83E300068A7
:103220000122FFF7B3FF224B98421FD003F5006342
:1032300098421BD003F54063984217D003F5806392
:10324000984213D003F5806398420FD0B0F1804FBD
:103250001FD18268174B1340062B24D1002008BDD4
:1032600080F84030DBE780F84130D8E7436C43F426
:10327000004343640E4B9842EBD00F4B9842E8D08A
:1032800003F540639842E4D0036843F00103036010
:10329000E4E70A4B9842DCD003F580639842D8D02B
:1032A00003F58063E7E7B3F5803FEDD1D6E700BFD4
:1032B000002C0140070001000034014000040040E0
:1032C00070470000F8B50446C0692169A268236808
:1032D0000A4361691D680A438549024329400A433C
:1032E0001A605A68E16822F440520A435A60814ADF
:1032F000A16993421CBF226A11439A6822F06E4270
:1033000022F430620A439A60DA6A616A22F00F029C
:103310000A43DA62784A934231D1784BD3F8883045
:1033200003F00303022B00F0DA80032B00F0D080BF
:10333000012B00F0C780B0F5004F40F0D580FFF7BB
:1033400063FA002878D061686D4B626A33F8122006
:10335000B0FBF2F24B0803EB4203B3FBF1F39AB27A
:10336000A2F110004FF6EF71884220D823F00F032E
:10337000C2F34202216813439BB2CB605CE0614A16
:10338000934216D15D4BD3F8883003F00C03082B21
:1033900000F0A58008D8002B40F09480B0F5004FD5
:1033A00078D1FFF71FFACCE70C2B00F091800120B9
:1033B00043E0554A93420AD1504BD3F8883003F08A
:1033C0003003202B00F08B80E5D9302BEDE74F4AFE
:1033D000934209D1494BD3F8883003F0C003802BC6
:1033E0007DD0D8D9C02BE0E7494A93420BD1434B5B
:1033F000D3F8883003F44073B3F5007F6FD0CAD997
:10340000B3F5407FD1E73B4A9342D0D13B4BD3F851
:10341000883003F44063B3F5006F15D003D843B987
:10342000FFF7E0F907E0B3F5406FC0D14FF400407B
:103430000BE0FEF7E7FD40B900204FF00113A36653
:103440000023C4E91C33F8BD324865682C4B626A1E
:1034500005EB450133F81220B0FBF2F39942A6D8F0
:10346000B3EB053FA3D8002319460EF069F80023FB
:10347000194606464FF4807768082A46E6FB07019E
:103480000EF05EF8244BA0F540729A428FD8236864
:10349000D860D1E7FFF7A6F90028CDD06368616A4C
:1034A000174A32F81120B0FBF2F000EB5300B0FBEA
:1034B000F3F080B2A0F110024FF6EF73E5E7FEF7EC
:1034C000A1FDE9E7B0F5004FF9D1FEF79BFD38E724
:1034D000B0F5004F3FF437AF4FF40040DEE7B0F5F2
:1034E000004F0C48DAD12EE7FFF78EF9D4E700BF82
:1034F000F369FFCF00800040003801400010024017
:10350000742A01080044004000480040004C00407C
:10351000005000400024F400FFFC0F00836ADA072B
:1035200010B506D50168C46A4A6822F40032224305
:103530004A609C0706D50168046B4A6822F4803211
:1035400022434A60590706D50168446B4A6822F451
:10355000802222434A601A0706D50168846B4A68B4
:1035600022F4004222434A60DC0606D50168C46B9F
:103570008A6822F4805222438A60990606D501683F
:10358000046C8A6822F4005222438A605A060FD5DE
:103590000168446C4A6822F480122243B4F5801F0B
:1035A0004A6005D14A68846C22F4C00222434A6012
:1035B0001B0606D50268C16C536823F400230B4335
:1035C000536010BD2DE9F843089E0546884617460E
:1035D00099462A68D06938EA00000CBF012300230D
:1035E000BB4201D000201AE0701CF3D0FDF7BAF9FD
:1035F0002C68A0EB0900B042236800D88EB923F4F0
:10360000D0732360A36823F00103A3602023C5F8CF
:103610008430C5F88830002385F880300320BDE869
:10362000F8835907D5D5E3691A05D2D54FF400635D
:103630002362236823F4D0732360A36823F001037B
:10364000A3602023C5F88430C5F88830C5F88C30D5
:10365000E1E773B504460026C0F88C60FDF782F9F7
:1036600023681B681A07054618D423681B685B0784
:103670000AD56FF07E43009300222B464FF4800161
:103680002046FFF79FFFA8B920230020C4F884300C
:1036900084F88000C4F88830E0660CE06FF07E4368
:1036A0000093324603464FF400112046FFF78AFF8D
:1036B0000028DAD0032002B070BD10B5044650B324
:1036C000D0F884301BB980F88030FFF7F9FD22680C
:1036D0002423C4F88430136823F0010313602046C8
:1036E000FFF7F0FD012816D0A36A13B12046FFF7BB
:1036F00015FF23685A6822F490425A609A6822F0B3
:103700002A029A601A6842F0010220461A60BDE857
:103710001040FFF79EBF012010BD90F88030012BB4
:103720001FBF0268136843F0020313601DBF00232C
:1037300080F8803018460220704790F88030012BC6
:103740001FBF0268136823F0020313601DBF00232C
:1037500080F8803018460220704700000F4B104A56
:103760009A60D3F8882042F47002C3F888200D4B89
:103770001A68002142F001021A6099601A6822F06A
:10378000A85222F410221A604FF48052DA601A68AC
:1037900022F480221A609961704700BF00ED00E0BA
:1037A000000000080010024021490B681B0754BFAD
:1037B000D1F894300B688A6802F00C0254BFC3F34E
:1037C0000323C3F30313082A2FD01A480C2A50F8F6
:1037D00023300CD01848042A08BF03468A681749CA
:1037E000C2F303128A5CD340154A13607047C8685D
:1037F000CA6800F00300C2F30312022802F10102BA
:103800000FD003280FD0B3FBF2F2CB68C868C3F324
:1038100006235343C0F3416201325200B3FBF2F37B
:10382000DCE7054BEFE7074BEDE7064BD6E700BFBC
:10383000001002408C2A01080024F400C42A010868
:10384000C801002000127A007047036801221B693A
:1038500000211847036800221B69114618476FF0C2
:103860001500704780F834130020704780F850121C
:103870000020704790F83403704790F8500270476A
:1038800000207047012070476FF01C0070470B68E4
:1038900003604B6843608B688360704710B4D0E965
:1038A00001320168541001EB6200D20748BF0A5987
:1038B00010BC48BFD35818470020704701207047FC
:1038C0006FF01C007047C3680BB19B6818477047C6
:1038D0000C4B10B5036048330446C0F8E430D0F810
:1038E000380310B103685B68984704F54970FFF727
:1038F000EAFF04F5407002F0E5F8204600F0E0FB36
:10390000204610BDDC2A0108A0F1E400FFF7E0BF6B
:1039100010B50446FFF7DCFF20464FF44F7102F06C
:1039200060F8204610BDA0F1E400FFF7F1BFD0F829
:10393000380308B520B100F0C1FA003818BF0120E3
:1039400008BD30B5002485B022466946054603947B
:1039500000F06EFB6846FFF7B6FF85F8364305B00A
:1039600030BD30B585B00024012269460546039478
:1039700000F05EFB6846FFF7A6FF85F8354305B00B
:1039800030BD10B5044601F04BFBD4E940239A4208
:103990000ABF94F80841002484F0010401F056FBAA
:1039A000204610BD38B500F5407400F5FA75204684
:1039B00002F052F82846FFF7E4FF20B1204602F05B
:1039C00067F8002038BD204602F062F8012002F0BE
:1039D0000AF8ECE7A0F1E400FFF7E4BF38B50546CC
:1039E000E830FFF7CEFF80F001042846E4B2FFF78D
:1039F0009EFF18B144F40054204638BD95F8FC22CF
:103A000044F010031BB2824208BF1C46F4E7A0F149
:103A1000E400FFF7E3BF000038B504460D4601F0AF
:103A2000FFFAD4F800312A78E2540133B3F5807FED
:103A300005D90D490D484FF4AF7201F01DFA94F805
:103A4000082108BF0023C4F800312AB1C4F80431AA
:103A5000BDE8384001F0FABAD4F804219A4204BF14
:103A6000012384F80831F3E70F1D0108201D010828
:103A700070B504460E4601F0D3FAD4E940239A42C9
:103A800002D194F80851B5B1E35C3370D4F8043135
:103A90000133B3F5807F05D909490A484FF4AF7265
:103AA00001F0EAF94FF0000208BF1346C4F80431F0
:103AB00084F80821012501F0C9FA284670BD00BF2D
:103AC0000F1D0108201D0108C36810B52BB9054959
:103AD00005484FF4FD7201F0CFF9BDE810401B68B6
:103AE000184700BF791D0108841D010870B50546FF
:103AF0000E4605F5497401F093FAB4420AD0204607
:103B0000FFF7E1FEF368C5F830331BB15B6831465F
:103B100020469847D5F8303343B147F6FF71284621
:103B2000FFF75CFF10B12046FFF7CEFFBDE8704005
:103B300001F08CBAA0F1E400FFF7D8BF08B5D0F8C7
:103B400030331BB100F54970FFF7BEFF08BD73B5F8
:103B50000446E830FFF715FF064694F8F0317BB9CC
:103B6000204600F043FA58B1204600F0EBFA0DF180
:103B700007018DF8070004F1E800FFF74DFFECE7BF
:103B800094F836332BB194F8F03113B12046FFF797
:103B9000D8FE56B104F1E800FFF7F3FE28B920463D
:103BA00002B0BDE87040FFF7C9BF02B070BD0000B1
:103BB0001FB5044601F034FA94F8BC30C3B194F850
:103BC0003633ABB92046FFF7C2FF94F8F0217AB93B
:103BD0000A4B03930A4B009469462046CDE9013213
:103BE00000F026FA6846FFF76EFE012384F83633AC
:103BF00004B0BDE8104001F029BA00BF6C2B0108E9
:103C00004F3B000838B5044600F0ACF90F4B236079
:103C100000254833C4F8E430C4E97A55C4E9BD55F9
:103C200084F8F05184F8FC5204F5407001F00CFF68
:103C300001232046C4F83053A4F8343384F83653B3
:103C4000C4F83853FFF7B4FF204638BDDC2A01081A
:103C50002DE9F8430746894615468AB307F54070B3
:103C600001F0FAFE07F1E800FFF78BFEB8B9044651
:103C700007F1E800FFF785FE40B909EB040107F101
:103C8000E8000134FFF7F4FEA542F1D13846FFF712
:103C90008FFF07F5407001F0FBFE204608E097F823
:103CA000343307F540702BB901F0F2FE6FF00A00D3
:103CB000BDE8F88301F0ECFE012001F094FECDE7B1
:103CC0001046F5E7A0F1E400FFF7C2BF70B5044667
:103CD0000E4600F5407001F0BFFE3146204600F070
:103CE00044FA2046FFF764FF04F5407001F0D0FE6F
:103CF000002070BDA0F1E400FFF7E8BF73B50446F3
:103D000090F8FC52204600F082F960B10DF10701F5
:103D100004F5FA70FFF7ACFE28B19DF807102046B5
:103D200000F013FAEEE794F835333BB104F5FA707E
:103D3000FFF727FE10B12046FFF713FE65B194F898
:103D4000FC324BB92046FFF7F2FD28B9204602B0FD
:103D5000BDE87040FFF7F2BE02B070BDF8B5054691
:103D60000C46164600F5FA773846FFF70AFE20B1F2
:103D7000A719BC4205D13046F8BD2846FFF7BEFF63
:103D8000F2E714F8011B284600F0DFF9F1E7000024
:103D90001FB5044601F044F994F8BD30DBB194F846
:103DA0003533C3B92046FFF7A9FF04F5FA70FFF7D2
:103DB000E8FD80B90A4B03930A4B0094CDE901302A
:103DC00001226946204600F033F96846FFF77BFD83
:103DD000012384F8353304B0BDE8104001F036B952
:103DE0006C2B0108FD3C00082DE9F04706460F4604
:103DF0001546002A44D001F010F9044630B12A4695
:103E000039463046BDE8F047FFF7A8BF06F54070D9
:103E100001F022FE96F8FC327BB9A7EB040AA5421A
:103E20000AEB04071CD996F8FC32CBB9394606F5E3
:103E3000FA70FFF7F1FD0134F1E796F83433A3B1DE
:103E400006F5407001F024FE012001F0CCFD06F5DE
:103E5000407001F001FE96F8FC32002BF0D1DCE757
:103E60003046FFF795FFA542D4D806F5407001F023
:103E70000FFE002C14BF20466FF00A00BDE8F0874B
:103E80001046FBE7A0F1E400FFF7AEBF70B50446B3
:103E90000E4600F5407001F0DFFD3146204600F08F
:103EA000AFF92046FFF774FF04F5407001F0F0FD14
:103EB000002070BDA0F1E400FFF7E8BF83681A6836
:103EC00043681A4214BF012000207047CB68C360CA
:103ED0000BB15B68184770477047426810B482B1F5
:103EE000D0E9033404F0010123B951B161105158F4
:103EF000CB5801E00029F9D1816802EB640010BCC5
:103F0000184710BC7047000070B50446D0F8C410C4
:103F10004C3000F09BFCD4F8D82092B1D4F8C830D3
:103F20001BB9D4F8CC30D8070BD5D4E937314E10B3
:103F300004EB6100C90744BFA159CB5894F8D010D5
:103F40009847D4F8B81004F14C00FDF76BF92246FD
:103F500004F14C000249BDE87040FCF7C9BA00BF4B
:103F600059410008F8B51E4B03601E4B4360002505
:103F70001D4B856017464C2204460E46C0E9055588
:103F8000C0E90755C360858445634564A0F848507F
:103F900029460061104407F0E9F9C4E92D57C4F837
:103FA000A45040F20113A4F8BC30B388A4F8BE308A
:103FB000B389A4F8C0304FF6FF732046C4E93165D9
:103FC000C4E93655C4F8CC5084F8D050A4F8D230A7
:103FD000A4F8D430C4F8E050FFF796FF2046F8BDAF
:103FE000802B0108093F0008DB3E000838B5054674
:103FF000044655F84C3B1B6898472846FDF7A8F83F
:10400000236805465B6820469847284638BD38B582
:104010000546044655F84C3B1B6898472846FDF773
:10402000A7F8236805465B6820469847284638BDB0
:1040300003682DE9F04105461B6816460F46984770
:1040400095F8BC30340103B1AEB195F8BD300BB179
:10405000012E10D098342C44BC4206D02046FFF7E5
:1040600032FC39462046FFF731FF2B6828465B6853
:10407000BDE8F0411847983400F0D2FF2C44FA68AC
:10408000E368A2B10BB901F017FAA74206D02046A7
:10409000FFF719FC39462046FFF718FF0122314689
:1040A00005F14C00FCF730FA00F0D0FFDDE70BB172
:1040B00001F018FA2046FFF706FC0022E260EEE766
:1040C0007FB51A4B0360002504462E462A466946F2
:1040D00020460396FFF7ACFF6846FFF7F4FB6B1C26
:1040E000022B4FF00105F1D194F8BC3013B994F8CC
:1040F000BD301BB104F14C00FCF78AFF04F1A800AD
:10410000FFF7E1FB04F19800FFF7DDFB04F1380055
:10411000FFF7D9FB04F12800FFF7D5FB206A08B1AF
:1041200000F0DEFC204604B070BD00BF802B01080B
:1041300010B50446FFF7C4FF2046E42101F051FC0E
:10414000204610BD4C30FCF74DBA10B54C300C4633
:10415000FCF77EFA204610BD00EB0110983008B540
:10416000C3680BB1FFF7B0FC08BD036870B5044627
:104170001B680D46984794F8BC30AB4217D0E5B9A0
:1041800000F04EFF2A46294604F14C00FCF7BCF92A
:10419000D4F8A4308BBB00F059FF84F8BC5035B97B
:1041A00094F8BD301BB904F14C00FCF731FF2368D3
:1041B00020465B68BDE87040184794F8BD304BB9A5
:1041C000D4E90132511004EB6200D20744BF6258B7
:1041D000D358984700F024FFD4F8A430002BDAD04D
:1041E00004F19800FFF770FC01F066F9012200214C
:1041F00004F14C00FCF788F9CDE701F073F9CAE748
:10420000036870B504461B680D46984794F8BD30A6
:10421000AB4217D0E5B900F003FF2A46012104F1B3
:104220004C00FCF771F9D4F8B4308BBB00F00EFFF2
:1042300084F8BD5035B994F8BC301BB904F14C007A
:10424000FCF7E6FE236820465B68BDE8704018472F
:1042500094F8BC304BB9D4E90132511004EB620040
:10426000D20744BF6258D358984700F0D9FED4F81B
:10427000B430002BDAD004F1A800FFF725FC01F0E0
:104280001BF90122114604F14C00FCF73DF9CDE782
:1042900001F028F9CAE703681B68184710B50446FF
:1042A000074B236000220023C4E9022300230846B1
:1042B000A161C4E90433034900F03AFA204610BD75
:1042C000982B01089742000807B5009000F10801FB
:1042D000806900F06AFA03B000BD00F1080180694E
:1042E00000F07DBAEFF3108372B6054A117831B948
:1042F0000449DB4303F001030B7001231370704783
:10430000681100206911002008B5EFF31083DB432A
:1043100013F0010304D006490648362200F0ACFD34
:10432000054A1370054B1B7803B162B608BD00BF88
:10433000C81D0108E41D0108681100206911002052
:10434000014B1878704700BF68110020F8B50F4680
:10435000044615461E46FCF7D1FA01370FD02268F5
:104360005EB1A3681A6020460121FCF7EDFA2946E8
:104370002046BDE8F840FCF7E3BAE368F2E7F8BD91
:1043800013460022FFF7E2BF0022FFF7F9BF00004B
:10439000004870479C2B0108024B1B680BB1024878
:1043A00018477047CC0100209C2B010807B5024636
:1043B0008A4208460AD0531C08D0013005D0002399
:1043C00003490448009300F0C1FF104603B000BD4C
:1043D000FE1D010830010180B1F900305A1C01D1E5
:1043E00018467047834201D1486870470C31F3E7A3
:1043F000421C13B504460AD0FFF7EEFF431C06D15A
:104400000023044904480093224600F09FFF02B0B5
:1044100010BD00BF0F1E010830010180B1F900304E
:104420005A1C01D118467047834201D188687047F1
:104430000C31F3E72DE9F041456895F832706FBB18
:1044400003685B6898472C6A844227D02B69A96867
:1044500095F934202862041B1C40A1FB0441B2B131
:10446000686A061941F10001BA4219DBC2F1200065
:10447000A2F1200326FA02F401FA00F021FA03F374
:1044800004431C43D14004FA02F2B21A6A62D5E92D
:104490000A321B1941EB0201C5E90A31BDE8F0817E
:1044A000D5F80C803B46424630460DF049F80446AC
:1044B00008FB10606862EAE7824206D98A420BD99B
:1044C000884294BF002001207047884206D98A4262
:1044D0008CBF0020012070470120704700207047EA
:1044E0002DE9F041446894F832300646002B61D142
:1044F00094F83180B8F1000F5CD1FFF79BFF63683F
:10450000002B59D0D3E90003D4E90A1281429A4121
:1045100004D33368BDE8F0415B6918477568D5E995
:104520000A12401A63EB020CD5E90572EB6982426C
:1045300073EB0C031FD3EB68A3FB000103FB0C110F
:1045400095F93330A3B1AA6802F1FF3C1CEB0000DF
:1045500041F10001002B1BDBC3F1200CA3F1200271
:10456000D84001FA0CFC40EA0C0021FA02F2104398
:10457000874228BF07462B6A1F442B691F40236AC6
:10458000BB4209D11149124840F2C91200F074FC33
:1045900043460CF0D5FFEBE7336838461B69984774
:1045A00033685B6898473A460146206AFFF784FF04
:1045B0000028AED1BDE8F0816369206A2269184401
:1045C00033681040BDE8F0411B691847671E0108B9
:1045D000791E01084368F7B593F830200546002A94
:1045E00076D193F83230002B72D103681B6898475C
:1045F0002B68DB69984703682BB936493648009326
:104600001A4600F0A3FE354A1E461146B6FBF2F2EA
:1046100001FB12620E46002AF7D16C682F4AB2FBEA
:10462000F1FC0126C4F808C01F22013A03D306FAA0
:1046300002F7BC45F9D184F83320B3FBF1F21F2314
:10464000E260012101FA03F6B24201D0013BF9D246
:1046500084F834304168081F1C2805D900232049FC
:10466000204800931A46CCE720291CBF01238B4029
:104670004FF007064FF0000706FA00F614BF03F1EB
:10468000FF334FF0FF33501E47F1FF31E6FB0C01C3
:10469000236166613B460CF053FF2B68C4E90601B9
:1046A000C4E900775B6898476B68206200210122AB
:1046B0000020C3E90A015F6228461A8683F8327037
:1046C000FFF7B8FE284603B0BDE8F040FFF708BF8B
:1046D00003B0F0BD9D1E01080E01048040420F0092
:1046E000B61E010805010480F3B44568069C8C6081
:1046F000C1E900236C68002634B9CC607EB96960DA
:1047000002B0F0BCFFF7ECBE676801972768BA42B9
:10471000019F73EB0707F0D32646E468ECE7F160EE
:10472000D5E90A4194429941EAD202B0F0BC7047FF
:1047300038B505460C46FFF74DFF00F071FC6B687D
:104740001C60BDE8384000F081BC70B5054600F043
:1047500067FCD5E90034DB68984794F832301BB128
:10476000BDE8704000F072BC012384F8313063680A
:10477000A3B12846FFF75EFE6368D4E90A62D3E975
:10478000000186428A4109D36A68DB685268636027
:104790002368002BEBD090689847E8E7002384F863
:1047A00031302846FFF79CFEDAE72DE9F341044655
:1047B0000D4616461F46DDF8208000F031FC2046ED
:1047C000FFF738FECDF8008032463B4629462046AA
:1047D000FFF78AFF02B0BDE8F04100F037BC38B502
:1047E00005460C4600F01CFC6A685368A34209D1D8
:1047F000DB6853602846FFF773FEBDE8384000F0E1
:1048000025BC1346002BF8D0DA68A242F9D1E26841
:10481000DA60F2E738B50446FFF7DCFE00F000FC92
:104820002046FFF707FE6368D3E90A4500F00EFC57
:104830002046294638BD7047024B1B680BB1024821
:1048400018477047D0010020C82B0108B1F90C208F
:10485000B1F90410FCF770BD08B5BFF35F8F1C4BB6
:10486000D3F8901011F47C4F04D11A491A483B2216
:1048700000F002FB0022C1F30721C3F89420104688
:104880008A421FD11022C3F89C20144AC3F8A020EA
:104890001322C3F89C20124AC3F8A0201122C3F8A7
:1048A0009C20104AC3F8A0200F4AC3F89C200F4A4E
:1048B000C3F8A0200722C3F89420BFF34F8FBFF3A3
:1048C0006F8F08BDC3F89820C3F8A0000132D7E766
:1048D00000ED00E02E1F01083D1F010839F002061F
:1048E000390702133FF50B13120000803900021341
:1048F000102300F007B8202300F004B8302300F0A4
:1049000001B840239C46F0B404AE7546E80801D3D4
:10491000EFF309860E4F0FCE0FC70FBC0FC74046EF
:10492000494652465B460FC71DCE3100A60A00D34A
:1049300004316E0900D248311FC7EFF30980694680
:10494000EFF3148663C76046014900F077F800BFB3
:10495000E0110020F0B52B4E85B0002435462146ED
:1049600056F8042B2848013400F03EFB0D2CF6D1FC
:10497000AB6C02936B6C01932B6C244C0093D5E9C8
:104980000E23696B224800F02FFB2168214800F0BC
:104990002BFBE16AA26AA36AA06A266BE76B000C94
:1049A000CDE901670090C3F307231B48D2B200F0A2
:1049B0001BFBA36A1E0603D5616B184800F014FBAD
:1049C000A36A180403D5A16B154800F00DFBEB6C2E
:1049D000190712D5134800F007FB2B6DDA070FD526
:1049E000114800F001FBEB6C5B074CBF0F4810480F
:1049F00005B0BDE8F04000F0F7BA0E4800F0F4FA58
:104A00000D48EEE7E01100204A1F010800ED00E02C
:104A1000581F0108A71F0108B51F0108042001083D
:104A200012200108202001082F2001085F20010822
:104A30006B2001084F2001083C20010807B50446FF
:104A40000D461A48012100F047FA68BB184800F0EB
:104A5000CBFA302C19D0402C1CD0202C1FD115485B
:104A6000154C00F0C1FA154800F0BEFAFFF772FFCE
:104A7000134800F0B9FA0D4B00221A7000231149B7
:104A800000932A46204600F061FC0F480F4C00F0CE
:104A9000ABFAE8E70E480F4C00F0A6FAE3E70E4841
:104AA0000E4C00F0A1FADEE70024E7E7AD1200208B
:104AB00077200108A02001083E01FF80CD200108D9
:104AC000D8200108F7200108AF2001083F01FF802E
:104AD000B82001084001FF80C32001083D01FF808C
:104AE000024B1B6803B11847704700BF3412002007
:104AF00010B5044600F094FA204610BD10B50446E7
:104B000000F0A4FA204610BD036870B51B690122AD
:104B1000002105469847041E0CDB2B6802221B6906
:104B20000021284698472B6821461B69044600222D
:104B300028469847204670BD034B186818B14FF0BF
:104B4000FF3102F041B9704750170020024B18683E
:104B500008B102F051B970475017002008B502495A
:104B600002488E2200F088F94421010851210108F1
:104B700010B504460846FFF74DFEC4E90001204683
:104B800010BD000010B50446FFF788FB20460A4B15
:104B900040F8203BA169FFF7EBFFD4E90823C4E903
:104BA0000A2300220023C4E90C230023C4E90E33A6
:104BB00084F84030204610BDFC2B01084FF0FF3038
:104BC000704738B590F83F5004460DB1FFF7C6FF67
:104BD000FFF783FB94F84030A5872BB184F8405051
:104BE000BDE8384000F07EBC38BD000008B50121AA
:104BF000383000F068F918B1024B4FF080625A600B
:104C000008BD00BF00ED00E010B50446FFF765FBEE
:104C1000002384F83F30024B4FF000725A6010BD01
:104C200000ED00E010B5044601F1300000F05DF940
:104C3000C4E90001204610BDD0E90C32013342F135
:104C40000002C0E90C32D0E90A3213F57A7342F15E
:104C50000002C0E90A327047D0E90A2312F57A72DD
:104C600043F10003FFF730BB08B5012380F83F3064
:104C7000836B1BB1034B4FF080625A60FFF7ECFF70
:104C800008BD00BF00ED00E090F83C3010B50446D0
:104C90004BB1002380F83C3090F83E3013B901232B
:104CA00080F83D3010BD90F83F30002BFAD0836B78
:104CB00001338363044B4FF080625A60FFF7BCFFFF
:104CC0002046FFF7C9FFEDE700ED00E037B50D46E0
:104CD000044689696846FFF74BFFD5E90A32009818
:104CE0000199C01A61EB0201B0F57A7F71F10003FE
:104CF00006D200220023C4E90023204603B030BDC1
:104D0000B0F5FA6F71F1000301D20122F2E7002938
:104D10004FF47A724FF00003D8BF00210CF010FC62
:104D2000C4E90001E9E7000091F83F30F7B5054616
:104D30000C4613B991F83C6026B112491248E5229D
:104D400000F09AF86846FFF7C1FFDDE900304FF444
:104D50007A71A3FB017201FB0022A663D4E90A1653
:104D6000C91942EB0602C4E90A12D4E90C125B1815
:104D700042EB00022846C4E90C32C5E9003203B018
:104D8000F0BD00BF442101085B2101082DE9F3417A
:104D90001E4690F83F300446154623B1304931484D
:104DA000582200F069F890F83C3017465BB901468C
:104DB0006846FFF7B9FF009BAB42019BB34105D3A7
:104DC000012384F83D3002B0BDE8F08121466846F9
:104DD000FFF728FF4FF47A73A5FB035803FB0688FF
:104DE000D4E90832ED1848EB020894F8402001237A
:104DF000DDE90001A3877AB9A269126892F8202040
:104E00003F1A66EB010632BB84F8403000F054FBD9
:104E1000052F76F100060DD2002384F83E3094F879
:104E2000403023B9012384F8403000F045FB2A4686
:104E300043460AE094F84030002BEDD10123B5F54C
:104E40007A6284F83E3068F10003204602B0BDE883
:104E5000F041FFF739BA052F76F10006DCD3EDE714
:104E6000442101085121010802F0D2BE03F0A6B985
:104E700002F0BABD02F026BD07B50B46009201460E
:104E80000022014800F062FA4401FF8003464FF01F
:104E90000102D3E84F0FC3E8412FC0B20029F8D177
:104EA0007047D0E85F3F5B18C0E8523F002AF8D156
:104EB00098B27047D0E85F3F5B1AC0E8523F002AC3
:104EC000F8D198B27047034653E8000F401A43E800
:104ED0000002002AF8D170470346D3E84F0FC3E819
:104EE000421FC0B2002AF8D1704738B5044600F01E
:104EF00097F8D4E9004500F0A9F82046294638BDC6
:104F000000B589B000F08CF800211C2201A806F041
:104F10002DFA052101A8FFF737FA0424039B019A13
:104F20001A600D4800F062FD049B019A0A481A605D
:104F300000F05CFD013CF1D10424039B019A1A604E
:104F4000064800F053FD049B019A04481A6000F0E3
:104F50004DFD013CF1D1E0E7F0490200801A060066
:104F600073B5002201460446022000F0C3FB0D2663
:104F700000F056F800222378254623B902B0BDE898
:104F8000704000F063B80A2B04F1010409D10D2A26
:104F900007D001220DF1070102208DF8076000F013
:104FA000A9FB01222946022000F0A4FB14F8012CE1
:104FB000E1E7000000B5A3B002460B4601A884213A
:104FC00006F0AAF8832806D9064B1A681B79CDF893
:104FD00083208DF88730002802DD01A8FFF7C0FF8D
:104FE00023B000BD782101080FB407B504A951F81A
:104FF000040B0191FFF7DEFF03B05DF804EB04B092
:105000007047EFF31080C04300F001007047EFF3EA
:105010000580003818BF01207047FFF791B90000E4
:1050200008B5FFF75FF9064A1368591C04D1054912
:1050300005483F22FFF720FF0133136008BD00BF82
:1050400038120020BA210108CA210108044A136855
:1050500023B1013B13600BB9FFF756B9704700BF8E
:105060003812002008B50B48FFF710FF28B1FFF7F2
:10507000D7FFBFF34F8F20BFFDE7FFF7C8FF08B191
:10508000FFF73EFFFFF7BDFF0028F9D0012000F039
:1050900085FC00BFAC1200202DE9FF41484C0E46B4
:1050A000216801F0C043B3F1C04F0CBF4D428DB237
:1050B000C1F307438046174642482A46FFF794FF4C
:1050C0006FF498731D44132D0FD8DFE805F00A52D2
:1050D00055585B615E640E0E0E0E0E0E0E0E0E0E19
:1050E0000E67A1683848FFF77FFF4046FFF738FF9B
:1050F00061683648FFF778FF4EB13548FFF730FF5B
:105100003046FFF72DFF33483946FFF76DFFA168A2
:105110003148FFF769FF2368304A9A18012A02D9FB
:105120002F4A93423ED1A268002A40D1E368002B67
:1051300044D059682B48002908BF0146E069039014
:10514000A06902906069019020690090264D27486F
:10515000002A0CBF2A4602462548FFF745FF216872
:105160002448FFF741FF244804B0BDE8F041FFF7B1
:105170003BBFA1682148B6E7A1682148B3E7A16811
:105180002048B0E7A1682048ADE7A1681F48AAE71A
:10519000A1681F48A7E7A1681E48A4E71E48FFF7BB
:1051A00023FFA2E71D4A9342BDD00022BEE792F83A
:1051B0004C2082F00802C2F3C002B7E70949BDE7FC
:1051C0004012002010220108612201080923010871
:1051D0001A2301082223010826230108C2FE007FAA
:1051E0004001FF80FB210108F6200108052201088B
:1051F0003A23010893230108E323010877220108D9
:105200008722010896220108A9220108BD2201086F
:10521000D1220108E0220108F62201083D01FF80A9
:105220007047000070B5294B8EB010EA200438BFDB
:105230001C460D4616460021302202A806F096F8BC
:10524000234B0194E318012B039502D9214B9C4277
:1052500032D1EB6B02936B6B08931F4B5B6904932A
:10526000DA6B05925A6B1B6B06920793FFF7D8FE19
:105270001A4A13680133012B136009D101AD0FCD18
:10528000174C0FC40FCD0FC40FCD0FC42B68236074
:1052900001AC0FCC134D0FC50FCC0FC50FCC0FC5F4
:1052A00023682B60104B1B68A5F1300053B1984761
:1052B000FFF7CCFE0EB070BD0C4B9C42C9D00296DD
:1052C00001ABC9E7FFF7ACFFF2E700BF0101FF80C8
:1052D000C2FE007F4001FF80DC020020A8120020F7
:1052E00074120020401200203C1200203D01FF807B
:1052F0000FB407B50D4801217546FFF7EDFD0446D3
:1053000088B901462A460A48FFF78CFF0948224619
:105310002146FFF7C1FE049805A90191FFF74AFE57
:105320000548FFF71DFEFFF79DFE00BFAD120020F0
:105330000001FF80FD230108F520010800207047CF
:10534000014B1878C0B27047AD12002080B50646F8
:105350000C460A480121F04617461D46FFF7BCFDE2
:1053600048B9424639463046FFF75CFF029A294663
:105370002046FFF791FEFFF775FE00BFAD1200203B
:1053800038B5064D286840B9FFF702F8044C0146CD
:105390002046FFF7F7FB2C60204638BDF8120020AE
:1053A000B012002008B5836823B9054B1B6893F839
:1053B0003D0008BDC06898470028F6D0F9E700BF57
:1053C000F8120020F7B5194F04464FF0FF356FF083
:1053D00000462046FFF7E6FF30BBD4E90023B34286
:1053E00008BFAA4202D03868FFF7D0FC01A8FFF737
:1053F0007FFB2046FFF7D6FF98B9D4E90023B342DC
:1054000008BFAA4207D100F091F801A8FFF776FB88
:10541000BFF36F8FDDE73B6893F83C30002BF2D190
:10542000F3E701A8FFF76AFB03B0F0BDF812002014
:1054300030B587B0CDE902230A9B0C4D04930B9B3A
:1054400005930446FFF79CFF02A8FFF7BBFF2868FF
:10545000FFF7B7FB68462968FFF766FCDDE9002324
:105460002046C4E9002307B030BD00BFF812002079
:105470002DE9F041DFF83C8086B005460E4604A8D1
:10548000D8F800101746FFF7CDFBD8F80020DDE96B
:105490000443916B641A63EBE1732A1943F100032F
:1054A00002A8CDE90067FFF7C3FF0298001B06B012
:1054B000BDE8F081F812002013B5074C0121204609
:1054C000FFF7EFFC034628B90090228803490448FF
:1054D000FFF73CFF02B010BDFC12002012240108AF
:1054E0002301048013B5094C01212046FFF7E2FC9B
:1054F0004FF6FF73984206D1002300932288044997
:105500000448FFF723FF02B010BD00BFFC120020CB
:105510003424010824010480034B188880B2B0FAB7
:1055200080F04009704700BFFC12002008B5FFF76B
:1055300077FDFFF7F1FF28B1FCF794F8BDE80840CC
:10554000FFF784BDFCF77AF8F8E7002070470020E9
:10555000704708B5012000F021FA0000074A084909
:1055600013681844884289BF064B10600C224FF024
:10557000FF308CBF1A601846704700BFD40100206E
:1055800000FC0920C430002000207047024B582244
:105590001A604FF0FF307047C43000200120704780
:1055A0000120704708B500F0FFFA08BD08B500F00B
:1055B00003FB08BD10B50446037803F00303012B79
:1055C00008D0FFF7B9FA237803F00302012A03D1C8
:1055D000FFF7BCFA002010BD2AB10549054840F28A
:1055E000D362FFF749FC43F0020323700120F2E786
:1055F0008F240108A124010808B5037803F00302F1
:10560000022A05D00749084840F2DC62FFF734FC63
:1056100023F0030343F001030370BDE80840FFF7E4
:1056200095BA00BF8F240108BF2401083F2870B538
:1056300004462CDC174E56F820305A1C25D102287F
:1056400023DCFFF784FF0346E8B92046FFF77DFF20
:105650000346C0B9104D2B68BFF35B8FDB0711D435
:105660002846FFF7A7FF68B10C490D484FF4E13217
:10567000FEF7C8FA0B4A0C490948FFF78FFF284686
:10568000FFF7BAFF094B46F82430184670BD0023D7
:10569000FBE700BFD801002000130020002C010808
:1056A00004130020C0010020D1380008E8130020B6
:1056B00038B5041E06DA05F057FF092303604FF0E2
:1056C000FF3038BDFFF7B2FF084A002542F82450EA
:1056D0000028F0D003685B699847041E04DA05F0DF
:1056E00043FF64420460EAE72846EAE7D801002065
:1056F000FFF7DEBF38B50C461546FFF797FF38B900
:1057000005F032FF092303604FF0FF34204638BD17
:1057100003682146DB682A469847041EF6DA05F03E
:1057200023FF64420460EFE738B50C461546FFF7E7
:105730007DFF38B905F018FF092303604FF0FF34EF
:10574000204638BD036821469B682A469847041EB8
:10575000F6DA05F009FF64420460EFE710B5FFF7E1
:1057600065FF30B905F000FF0923036000242046DF
:1057700010BD0368DB699847041EF8DA05F0F4FEF3
:1057800064420460F2E700002DE9F74F06460F4639
:105790009046FFF73CFC054630B100232C492D48CC
:1057A00000933246FFF7D2FDFFF72BFC0028F4D020
:1057B000A84509DA05F0D8FE162303604FF0FF3440
:1057C000204603B0BDE8F08F3046FFF7C7FF044620
:1057D00040B1DFF884A01AF806902C464FF00D0B6C
:1057E000A84512DCA045EBDDA8EB040239193046D0
:1057F000FFF780FF431CE1D00444002CC1BF3F19D8
:10580000154B17F8012C9A55DAE77B5D0A2B1BD153
:10581000B9F10D0F18D0AC420BDA39192A1B3046FA
:10582000FFF768FF411CC9D00444A542C8DC0AF850
:105830000690012209493046FFF75CFF421CBDD0AB
:105840000028BDD00AF806B017F805900135C7E763
:10585000F62401082F01018040160020122A0108B9
:10586000FFF77CBF7FB504460E461546FFF7CFFB1A
:1058700030B100232049214800932246FFF766FDFE
:10588000FFF7BFFB0028F4D0002D07DA05F06CFE0F
:10589000162303604FF0FF3004B070BD2046FFF7C1
:1058A0005DFF00B3164D01220DF10F012046FFF7F9
:1058B0003BFF431CF0D00028EED09DF80F300D2B9D
:1058C00008D12A5D0A2A0AD01A460A232A553370BB
:1058D0000120E1E70A2B04D12A5D0D2AF3E72B55BD
:1058E000E1E71A46F2E72A463146204604B0BDE811
:1058F0007040FFF719BF00BF302501082F0101805C
:105900008016002038B50C461546FFF78FFE38B9D3
:1059100005F02AFE092303604FF0FF34204638BD0E
:10592000036821461B692A469847041EF6DA05F0EB
:105930001BFE64420460EFE7FFF7E4BF10B5FFF71A
:1059400075FE30B905F010FE092303604FF0FF30FB
:1059500010BD03689B699847041E04DA05F004FE35
:1059600064420460F2E70020F2E700000A4C08B548
:1059700023680546986805F0BFF82368D86805F0E5
:10598000BBF80120FFF7DAFF0220FFF7D7FF0DB1C8
:10599000FFF7B6FAFEE700BFF009002008B5FFF7F1
:1059A000E5FF38B50D46FFF741FE044630B905F076
:1059B000DBFD092303604FF0FF3038BD0368DB696E
:1059C000984700280CBF4FF400434FF400536B601E
:1059D000236820469B6A984728610020EDE7FFF77F
:1059E000E0BF02F00DB900F075B80000034A516A3B
:1059F000536A5B1A8342FBD3704700BF000C004020
:105A00001FB5002303620D4B002918BF0B460093FE
:105A1000031D02931C230446039368460B23019342
:105A200001F0BAF9206038B9FFF78AFC20B90449BF
:105A300004483E22FFF720FA04B010BD6C2501088F
:105A4000BF250108C925010810B500210446FFF74C
:105A5000D7FF204610BD000037B504464FF0FF3198
:105A6000006801F0B1F9054648B1FFF769FC03464B
:105A700040B90090044905482A46FFF767FC236AAD
:105A80000133236203B030BDED250108150102800A
:105A9000036A013B13B50362006801F0ADF90446E7
:105AA00048B1FFF74DFC034628B90090034904486C
:105AB0002246FFF74BFC02B010BD00BFFF250108D6
:105AC0001701028010B50446006801F0ADF92046C8
:105AD00010BD000008B538B100F076FA20B10349D6
